:020000040800F2
:10000000C038002099010008670200085F0200085C
:1000100063020008590200080D03000800000000F8
:100020000000000000000000000000006B0200085B
:100030005D02000800000000690200086D0200086F
:10004000B3010008B3010008B3010008B3010008C0
:10005000B3010008B3010008B3010008B3010008B0
:10006000B3010008B3010008B3010008B3010008A0
:10007000B3010008B3010008B3010008B301000890
:10008000B3010008B3010008B3010008B301000880
:10009000B3010008B3010008B3010008B301000870
:1000A000B3010008B3010008B3010008B301000860
:1000B000B3010008B3010008B3010008B301000850
:1000C000B3010008B3010008B3010008B301000840
:1000D000B3010008B3010008B3010008E102000801
:1000E000B3010008B3010008B3010008B301000820
:1000F000B3010008B3010008B3010008B301000810
:10010000B3010008B3010008B3010008B3010008FF
:10011000B3010008B3010008B3010008B3010008EF
:10012000B3010008B3010008B3010008B3010008DF
:10013000B3010008B3010008B3010008B3010008CF
:1001400000000000000000000000000000000000AF
:10015000B3010008B3010008B3010008B3010008AF
:10016000B3010008B3010008B3010008B30100089F
:10017000B3010008B3010008B3010008B30100088F
:10018000B3010008DFF80CD000F054F80048004735
:10019000F1290008C038002006488047064800477B
:1001A000FEE7FEE7FEE7FEE7FEE7FEE7FEE7FEE727
:1001B000FEE7FEE7710200088501000840EA01033E
:1001C0009B0703D009E008C9121F08C0042AFAD20D
:1001D00003E011F8013B00F8013B521EF9D27047D1
:1001E000D2B201E000F8012B491EFBD27047002279
:1001F000F6E710B513460A4604461946FFF7F0FF26
:10020000204610BDCAB2401E10F8011F8A4202D01B
:100210000029F9D10020704730B50446002003467C
:1002200000E05B1C934203D2E05CCD5C401BF8D045
:1002300030BD0000064C074D06E0E06840F00103C9
:1002400094E8070098471034AC42F6D3FFF79EFFBE
:10025000A0E70208C0E7020800BFFEE7704700BF42
:10026000FEE700BFFEE77047704770477047000029
:100270001848006840F47000164908601648006885
:1002800020F00100401C1449086000BF12480068BB
:10029000C0F340000028F9D00F48406820F0030068
:1002A0000D49486000BF0C484068C0F38100002839
:1002B000F9D1094800680949084007490860002049
:1002C000486008634FF41F008860C8030149803903
:1002D0000860704788ED00E000100240FFFFF2FE6A
:1002E00010B52021084803F03FFA01280BD1202146
:1002F000054803F030FA044803F020FA044621468A
:10030000014803F01FFA10BD0048004000BFFEE79F
:100310000FB4054B10B503A9044A029800F017F872
:1003200010BC5DF814FB0000652600085C0000208E
:1003300002E008C8121F08C1002AFAD170477047AE
:10034000002001E001C1121F002AFBD170472DE9F6
:10035000F84F9946924688460546002706E025282C
:100360000AD051464A4690476D1C7F1C28780028C9
:10037000F5D13846BDE8F88F002315F8011F18465F
:100380002E2915D115F8011F04232A290DD06FF04D
:100390002F022978A1F13004092C09D800EB800044
:1003A00002EB400008446D1CF3E758F8040B6D1C89
:1003B0002A78002ADDD0632A07D0732A0FD010468E
:1003C00051464A4690477F1C2AE018F8042B8DF8C6
:1003D000002000218DF801106E46012103E058F83D
:1003E000046B4FF0FF315A074FF0000401D409E0CD
:1003F000641C84420BDA8C42FADB325D002AF7D1AE
:1004000005E0641C8C42FCDB305D0028F9D12744F8
:1004100004E016F8010B51464A469047641EF8D294
:100420006D1CA3E71CB500200090019001211B4822
:1004300000F046FD10208DF8060000208DF8040025
:1004400018208DF8050001208DF8070000030090AA
:100450006946134802F052FA08208DF8060080021F
:10046000009069460E4802F049FA08208DF806000F
:10047000C002009069460A4802F040FA08208DF850
:100480000600000300906946054802F037FA4FF471
:100490008051034802F030FA1CBD00000300180030
:1004A000000C01401CB5FFF7BDFF0121114800F011
:1004B00007FD684602F017FF01208DF807008DF850
:1004C000010000208DF8000001208DF806008DF855
:1004D000050000208DF803008DF8040002208DF83F
:1004E00002006946044802F01CFF0121024802F0A4
:1004F00005FF1CBD0E001C000038004010B5FF2099
:1005000000F002F810BD000070B5044621460B480B
:1005100002F0FDFE00BF0121084802F0FAFE0028AB
:10052000F9D0064802F0EFFEC5B200BF80210348B3
:1005300002F0EFFE0028F9D1284670BD00380040D7
:100540001CB500200090019001210E4800F0B8FC7D
:1005500008208DF8060000208DF8040004208DF896
:10056000050001208DF80700C0020090694606488A
:1005700002F0C4F94FF4806000906946024802F02E
:10058000BDF91CBD03001800000C014010B5FFF7B9
:10059000D7FF00F023F801210D4800F091FC002363
:1005A0001A464FF4E1310B4803F0E6F801210948FF
:1005B00003F046F90121074803F03DF90121054800
:1005C00003F0C4F801220449024803F019F910BDF0
:1005D00012001C000048004005000C0010B504206B
:1005E00002F018FD00221146272002F0AFFC10BDDA
:1005F0002DE9F041044688460020E070401E60630B
:100600004146204602F088FC10B10420BDE8F0818C
:1006100004F2362002F0E5F9074694F83850EB2D45
:1006200003D0E92D01D0E82D43D14AF65520874269
:1006300008D1082223A104F18A00FFF7EDFD08B9D3
:100640000020E3E704F1430002F0CBF90646452021
:10065000055D701E304060BBB6F5007F29DBB6F546
:10066000805F26DC2DB3681E284010BB04F14600D5
:1006700002F0B7F9E8B14820005D401E012818D803
:1006800004F1490002F0ADF998B104F14B0002F019
:10069000A8F9802806DA04F1580002F096F9B0F5BE
:1006A000803F06D304F14E0002F09BF908B1002010
:1006B000ACE74AF65520874201D10220A6E7032085
:1006C000A4E70000464154333220202000000000FF
:1006D0000246891ED069801E884201D800207047DA
:1006E0005389106B03FB0100F9E700002DE9F04787
:1006F00080460C4604F11A0002F073F910B1002094
:10070000BDE8F087207800F03F00401E00EB80013C
:1007100001EBC0054FF00109002621E01849895D71
:10072000081902F05EF90746B9F1000F11D0FF2D4C
:100730000BD8384601F0AEFE824629466D1C38F8CB
:10074000110001F0A7FE824501D00020D8E7B9468C
:1007500005E04FF6FF70874201D00020D0E7761CFD
:100760000D2EDBD3207800F0400038B1B9F1000F36
:1007700004D038F8150008B10020C1E70120BFE718
:10078000A43B00082DE9F04782468846DAF800408D
:10079000B8F1000F06D1676917B1E069B84215D802
:1007A000012713E04146504601F0E4FF0546022DC3
:1007B00002D20120BDE8F087681C08B92846F9E795
:1007C000E069A84201D92846F4E74746A06908B97C
:1007D0000020EFE70026474518D17E1CE069B042B3
:1007E00000D802263146504601F0C4FF0546012DCF
:1007F00001D0681C08B92846DCE73DB16569022DC7
:1008000003D3E069A84200D92F460026E6B93E4648
:1008100000BF761CE069B04204D80226BE4201D96E
:100820000020C7E73146504601F0A4FF054605B950
:1008300009E0012D01D0681C08B92846BAE7BE427C
:10084000E7D10020B6E700BF4FF0FF323146204627
:1008500002F0F4FB8146B9F1000F08D1B8F1000FA6
:1008600005D032464146204602F0E8FB8146B9F108
:10087000000F0DD16661D4E90610801E814202D8B6
:10088000A069401EA061207940F00100207107E0BE
:10089000B9F1010F02D14FF0FF3000E00120064610
:1008A000304687E72DE9F34F85B08146069800680A
:1008B0000290D9F80000D0F810A0002500BF02A8CF
:1008C00002F016FF83460BF1010018B9062007B0AD
:1008D000BDE8F08FBBF5803F05D34FEA1B422846A9
:1008E0006D1C2AF810201FFA8BF4202C03DB2F2C10
:1008F00001D05C2C00D111E0802C06DA21467BA0CF
:10090000FFF780FC08B10620E1E7FF2D01D30620A8
:10091000DDE728466D1C2AF81040D0E700BF202CE8
:1009200001DA042611E002E00298401C02900298CD
:1009300000782F28F8D0029800785C28F4D00026A0
:1009400002980078202800D20426029906980160B7
:1009500008E0681E3AF81040202C02D02E2C00D05F
:1009600002E06D1E002DF4D100BF00202AF8150012
:100970000DB90620ABE7002700E07F1C3AF817000E
:100980002028FAD01FB93AF817002E2801D146F0D6
:10099000030600E06D1E25B1681E3AF810002E28EF
:1009A000F8D120220B2109F12000FFF719FC4FF0AC
:1009B0000008CDF810800820039000BF38467F1C47
:1009C0003AF8104004B966E0202C03D02E2C04D154
:1009D000AF4202D046F00306F0E7DDE9031088429B
:1009E00001D2AF4216D103980B2802D146F003067C
:1009F00051E0AF4201D046F00306AF4200D94AE0D1
:100A00002F46082004900B2003904FEA88604FEA9D
:100A10001068D3E7802C0ADB46F00206204601F07E
:100A200039FD4FF46A71019001F0FAFC0446FF2C85
:100A300011DD0398401E0499884204D846F003064D
:100A400003980490BAE722120498411C049109F11A
:100A500020010A5418E024B1214627A0FFF7D2FB59
:100A600018B15F2446F003060EE0412C03DB5A2C3C
:100A700001DC48F00208612C06DB7A2C04DC48F02B
:100A80000108A4F1200084B20498411C049109F1EA
:100A900020010C5492E700BF99F82000E52802D10C
:100AA000052089F820000398082803D14FEA8860C0
:100AB0004FEA106808F00C000C2803D008F003007F
:100AC000032801D146F0020606F0020048B908F0FA
:100AD000010008B146F0100608F0040008B146F025
:100AE00008062B2000F809600020F0E62A3A3C3E78
:100AF0007C223F7F000000002B2C3B3D5B5D000013
:100B00002DE9FF4F85B09A4603AA0121059800F010
:100B1000F8FC18B1012009B0BDE8F08FDDF80C90A9
:100B20004FF03F08082701E07806070E37B1B9FB00
:100B3000F7F0B0FBF8F0B0F5806FF5D807B9FF27F4
:100B40004FF480515046FFF752FB0AF5DF764FF025
:100B5000000B444669E0069850F82B50642D07D8E6
:100B600001D1484603E06420B9FBF0F06843054634
:100B70006019484501D8601901D3A9EB040505B9EE
:100B800059E0214606F1080002F06FFC294606F103
:100B90000C0002F06AFC07983071B4FBF8F0B0FB6F
:100BA000F7F00490B4FBF8F0B0FBF7F107FB11008D
:100BB000C0B20290B4FBF8F008FB1040401CC0B279
:100BC000019002987070C021049801EA9000019988
:100BD0000843B0700498F0706019401EB0FBF8F044
:100BE000B0FBF7F004906019401EB0FBF8F0B0FBCA
:100BF000F7F107FB1100C0B202906019401EB0FB74
:100C0000F8F108FB1100401CC0B20190029870710D
:100C1000C021049801EA900001990843B07104983A
:100C2000F07110360BF1010B2C44BBF1040F02D212
:100C30000CB14C458FD300BF4AF655210AF5FF7021
:100C400002F01FFC012300225146059800F09EFC93
:100C500008B101205FE700205DE700000349496813
:100C600060F30711014A5160704700000010024014
:100C70000349496860F30A21014A51607047000046
:100C8000001002400349496860F3CD21014A5160D8
:100C90007047000000100240012807D10749496D44
:100CA00021F030013031054A516505E00349496DB5
:100CB00021F03001014A51657047000000100240E8
:100CC000052827D2DFE800F0030A11181F00134A95
:100CD000126861F30002114B1A601CE00F4A12689F
:100CE00061F310420D4B1A6015E00C4A126861F373
:100CF00018620A4B1A600EE0084A126A61F3000299
:100D0000064B1A6207E0054A526A61F30002034B80
:100D10005A6200E000BF00BF7047000000100240B0
:100D20002DE9F041014600270022002590460023CE
:100D3000002400F053F9064626B1012E12D0022EEF
:100D400043D112E03948406DC0F3402038B13748F4
:100D5000006BC0F3406010B13548086001E03548D1
:100D6000086035E03348086032E030484068C0F33E
:100D700000482E484068C0F383422C484068C0F3C6
:100D800041750DB90F2A03D12801401C024400E02F
:100D9000921CB8F1000F03D127485043086013E0BC
:100DA00022484068C0F3404058B12048406DC0F32D
:100DB0000137B81CDFF87CC0BCFBF0F05043086082
:100DC00002E01C485043086002E01A48086000BF77
:100DD00000BF16484068C0F303131848C45C086895
:100DE000E040486011484068C0F302231448C45CE6
:100DF0004868E040C8600D484068C0F3C22311480D
:100E0000C45C4868E040886008484068C0F30073EC
:100E100006484068C0F3813040EA83030A48C45C56
:100E20008868B0FBF4F00861BDE8F0810010024072
:100E3000006CDC0200127A0000093D007C3B0008D7
:100E40008C3B0008943B00089C3B000810B5014611
:100E50000020094B03EB1142126801F01F0401232B
:100E6000A3401A4001F01F040123A3409A4200D07E
:100E700000E0012010BD0000001002400349496D50
:100E800060F30D31014A51657047000000100240C7
:100E900030B50024002500E0641C1120FFF7D6FFC8
:100EA000012802D0B4F5405FF6D31120FFF7CEFF42
:100EB000012801D0002500E00125284630BD0000B2
:100EC00010B501290DD10E4B03EB1042126800F052
:100ED0001F040123A3401A43094C04EB10431A607A
:100EE0000CE0074B03EB1042126800F01F040123D3
:100EF000A3409A43024C04EB10431A6010BD00005B
:100F00000010024010B530B9184B5B6823F48033F1
:100F1000164C636017E0154B5B6823F4803303F5D0
:100F20008033124C6360012805D123465B6823F4AB
:100F30000033636007E00D4B5B6823F4003303F577
:100F400000330A4C6360094B5B6861F39543074CBF
:100F500063600C09054B5B6864F35E73034C63606C
:100F600023465B6862F3DF73636010BD00100240CC
:100F70001348006820F00100401C1149086000BFC0
:100F80000F480068C0F340000028F9D00C484068C2
:100F900020F003000A49486000BF09484068C0F3D8
:100FA00081000028F9D10648006806490840044934
:100FB00008600020486008634FF41F008860704795
:100FC00000100240FFFFF2FE0349496860F301018F
:100FD000014A51607047000000100240024840681A
:100FE000C0F38100704700000010024001460B482A
:100FF000007888420FDC09484078884201DB0120F4
:10100000704706488078884205DC0448C0788842EA
:1010100001DB0120F4E70020F2E70000B13B00080B
:10102000014610480079884219DC0E484079884210
:1010300001DB012070470B488079884205DC0948B4
:10104000C079884201DB0120F4E70648007A884233
:1010500005DC0448407A884201DB0120EAE70020F1
:10106000E8E70000B13B00082DE9F04104460E46D8
:10107000D4F800800021204600F0E3F90546EDB9E0
:10108000002700BF4046A16901F046FF054605B1B3
:1010900013E0E0690078E52802D0E069007820B923
:1010A000781C0746B04201D107E000270121204605
:1010B00000F0B7F80546002DE4D000BF042D00D1A4
:1010C00007252846BDE8F0812DE9F047044689460A
:1010D000204602F033FA10B10120BDE8F0874946FE
:1010E0002046FFF7F5FA064666634FF4805104F197
:1010F0003800FFF77CF804F138080127002500E0EC
:101100003D446089A84207D9721960783B46414640
:1011100000F03CFA0028F3D06089A84201D00120F9
:10112000DBE70020D9E72DE9F0470446D4F800A01A
:101130000021204600F085F9064616B13046BDE88C
:10114000F0874FF0FF08C1464FF0FF30E06200BF6C
:101150005046A16901F0E0FE064606B15EE0E06996
:1011600005780DB9042659E0E069C07A00F03F0720
:10117000A771E52D04D007F0080038B10F2F05D076
:101180004FF0FF084FF0FF30E06240E00F2F22D118
:101190002B20005D00F0400098BB05F0400038B106
:1011A000E06990F80D9005F0BF05A8462069E0625F
:1011B00045450CD1E069407B484508D1E169DAF842
:1011C0001000FFF793FA10B1A8F1010000E0FF2032
:1011D00000F0FF081BE0B8F1000F05D1E06902F054
:1011E00056F9484500D119E02B20005D00F00100C0
:1011F00040B90B2204F12001E069FFF70DF808B9AE
:101200000CE004E04FF0FF084FF0FF30E0620021F7
:10121000204600F006F80646002E99D000BF304662
:101220008DE72DE9F041044688462668206900F1E3
:101230002007B7F5001F01D30020A061A06910B9F5
:101240000420BDE8F081B089B7FBF0F100FB11701C
:10125000002847D1A069401CA061606938B9308975
:10126000B0EB571F3ED80020A0610420E9E7B08909
:10127000B7FBF0F07189491E084098BB20466169B0
:1012800001F078FA0546012D01D80220D9E7681C43
:1012900008B90120D5E7F069A8421DD8B8F1000FC0
:1012A00003D10020A0610420CBE720466169FFF74D
:1012B00069FA05460DB90720C3E7012D01D10220C7
:1012C000BFE7681C08B90120BBE729463046FFF795
:1012D000FBFE08B10120B4E7656129463046FFF7FF
:1012E000F7F9A0612761B089B7FBF0F100FB11713C
:1012F00006F138000844E0610020A2E72DE9FE4F26
:10130000044626682B20005D00F0A00010B10620E6
:10131000BDE8FE8F4FF0000901E009F101093069D5
:1013200030F819000028F8D1D4E90912206A8DE8B4
:1013300007009DF80B0000F0010028B340212B208E
:1013400001554FF001080EE04346694604F12000C4
:10135000326901F0A5F92046FFF7E5FE054605B123
:1013600004E008F10108B8F1640FEDD300BFB8F153
:10137000640F01D10720CBE7042D01D02846C7E731
:101380009DF80B102B2001559DF80B0000F002007A
:1013900030B109F10C000D21B0FBF1F0401C00E070
:1013A0000120074639462046FFF75EFE05464DBB45
:1013B000781E071E26D02069A0EB4711204600F0BA
:1013C00040F80546F5B904F1200002F060F88246C5
:1013D00000BF3046A16901F09FFD054605B110E050
:1013E000FAB2E1695346306901F0F0FE0120F07075
:1013F00000212046FFF715FF054615B9781E071E88
:10140000E7D100BFDDB93046A16901F085FD054691
:10141000ADB92021E069FEF7EAFEE069216A0160CA
:10142000616A4160218D018194F82A1081722B201C
:10143000005D00F01800E16908730120F070284693
:1014400066E72DE9F04104460E462568B6F5001F13
:1014500002D206F01F0010B10220BDE8F081266123
:10146000A7681FB92878032800DBEF6A47B92889E5
:10147000B0EB561F01D80220EFE7E86AA0611DE03B
:101480006889A98900FB01F811E03946204601F07E
:1014900071F90746781C08B90120DEE7022F02D354
:1014A000E869B84201D80220D7E7A6EB080646450E
:1014B000EBD239462846FFF70BF9A0616761A069B6
:1014C00008B90220C9E7A889B6FBF0F0A169084471
:1014D000A061A889B6FBF0F100FB116105F13800AD
:1014E0000844E0610020B8E770B504463CB9FEF757
:1014F000D9FF002000F03BF80546284670BD0120CA
:10150000FCE710B503460C46E3B934B1012C06D014
:10151000022C09D0032C10D10BE000210FE040F683
:101520000800106000210AE04FF480501080002174
:1015300005E001201060002101E0042100BF00BF90
:10154000084610BD0420FCE72DE9F04104460D4695
:1015500016461F464CB93A033103284602F090FA6A
:101560004FF000084046BDE8F0810420FBE770B56D
:1015700005464DB902F05AFA044645F61660844213
:1015800000D10026304670BD0120FCE72DE9F04176
:1015900006460F4614461D467EB9200302F098FA0F
:1015A0004FF6FF7000EA05322103384602F06BF96E
:1015B0004FF000084046BDE8F0810420FBE738B555
:1015C0000546284600F09EFD04463CB9694628467B
:1015D00002F03BF904460CB900202860204638BDD3
:1015E0002DE9FF4F99B00E4619A801F05CF9039060
:1015F0000398002803DA0B201DB0BDE8F08FF749EF
:10160000039851F8200028B10021F44A039852F8B9
:10161000200001700398C0B216900020159006B902
:10162000EF4E1698FFF760FF0290029800F001005D
:1016300008B10320E0E7029800F0040008B10A2096
:10164000DAE770681290129838B912AA0321169836
:10165000FFF757FF08B101201290129840B112987D
:10166000B0F5004F04D81298401E1299084008B1F6
:101670000120129014AA02211698FFF742FF08B128
:101680000120B9E7BDF85000B0F5805F0BDCBDF874
:101690005000B0F5007F06DBBDF85000401EBDF8DD
:1016A0005010084008B10120A6E7307800F00F0084
:1016B00018907078012804DB7078022801DC7078BB
:1016C00000E001200590B16889B1B168B1F5004F23
:1016D0000DD8BDF85000C11700EBD1614911B268B7
:1016E000B2FBF1F301FB132109B9B16801E04FF43A
:1016F00000710491F068B0F1807F05D8F068411E58
:10170000084008B9F06800E000200690BDF85010CD
:101710000698B0FBF1F00690BDF850101C98B0FB95
:10172000F1F01390139808B9112065E71B9C0CB9D0
:10173000112061E74FF0000ACDF83CA000BF0FAACE
:1017400001211698FFF7DDFE08B1012054E7189833
:1017500000F0080040B90F983F2805D94FF03F0A24
:101760000F98A0EB0A000F900F98802801D20E204E
:1017700042E700BF00BF0698802801D9802006906C
:10178000189800F0020028B1189800F0010008B97C
:10179000032707E0189800F0010008B913202BE791
:1017A000022700BF00BF8F490F980844109000BF68
:1017B000069D032F2DD195B90F984FEA50494FF050
:1017C000000B012502E00BF1010B6D00864830F89B
:1017D0001B0020B1844830F81B004845F3D90F980E
:1017E000B0FBF5F8082000EB8800BDF85010084465
:1017F000401EB0FBF1F008902020099000200790D7
:101800004FF6F570804502D97848804539D90E20C9
:10181000F2E695B90F984FEA10394FF0000B012509
:1018200002E00BF1010B6D00714830F81B0020B194
:101830006F4830F81B004845F3D90F98B0FBF5F816
:1018400040F6F570804503D9042000EB480906E016
:10185000012708EB4800401C032101EB5009BDF8AB
:1018600050004844401EBDF85010B0FBF1F0089005
:101870000120099004984001BDF85010B0FBF1F030
:101880000790099850440E90059A08990E9801FB0C
:101890000201079808440D9012990D980844401EC3
:1018A000491E20EA01010D98A1EB0009032F06D182
:1018B0000998484409900E9848440E9013E0059802
:1018C000B9FBF0F100FB119038B1A9F101090998B9
:1018D000401C09900E98401C0E900598B9FBF0F141
:1018E0000898084408900D9800EB0510A0EB0A003A
:1018F0000F99884201D90E207EE60F9909980A1A9D
:101900000599089800FB11210798081AB0FBF5F813
:10191000032F0BD14FF6F570804507D8069818B9FC
:101920006808069000B135E00E2065E6022F28D148
:101930004FF6F570804517D9069830B94020B0EBC6
:10194000450F02D36800069024E0189800F00200CA
:1019500008B103271EE0069820B968000690802889
:1019600000D817E00E2047E640F6F570804508D80D
:10197000069820B968000690802800D80AE00E205A
:101980003AE6012F05D140F6F570804501D90E20C9
:1019900032E600E00CE700BFBDF850102046FEF72D
:1019A00026FC14A0016821604168616001892181E1
:1019B000807AA072BDF8501004F10B0001F061FDB7
:1019C0006573099881B204F10E0001F05AFD059883
:1019D0002074032F14D1002013E0000050000020D9
:1019E000D83B000800002150CA3B0008F5FFFF0F5C
:1019F000BC3B0008EBFE904D53444F53352E300056
:101A0000049881B204F1110001F03BFD0F98B0F58C
:101A1000803F06D20F9881B204F1130001F031FD2E
:101A200004E004F120000F9901F01FFDF82060751B
:101A30003F2104F1180001F024FDFF2104F11A00F8
:101A400001F01FFD514604F11C0001F00EFD032FB3
:101A500025D104F14300109901F007FD04F12400A1
:101A6000089901F002FD022104F12C0001F0FDFCB7
:101A7000012104F1300001F004FD062104F13200DF
:101A800001F0FFFC802084F84000292084F8420007
:101A9000132283A104F14700FEF790FB16E004F146
:101AA0002700109901F0E1FC089881B204F11600BA
:101AB00001F0E7FC802084F82400292084F8260027
:101AC00013227CA104F12B00FEF778FB4AF6552186
:101AD00004F5FF7001F0D5FC01235246214616980B
:101AE000FFF754FD08B1012086E5032F33D1012310
:101AF0000AF1060221461698FFF748FDBDF850107E
:101B00002046FEF774FB7049204601F0AEFC6F4999
:101B100004F5F27001F0A9FCA8F1010104F5F470DC
:101B200001F0A3FC022104F5F67001F09EFC4AF6D8
:101B3000552104F5FF7001F0A4FC01230AF107020E
:101B400021461698FFF722FD01230AF101022146E2
:101B50001698FFF71BFDBDF85020139800FB02F10B
:101B60002046FEF744FB0E980C904FF0000B40E02F
:101B7000032F0FD16FF00701204601F076FC391FCB
:101B8000201D01F072FC6FF0704104F1080001F0BB
:101B90006CFC09E0012F01D14D4801E06FF0070016
:101BA0000146204601F061FC0898119000BF13998E
:101BB0001198884201D9139800E0119881464B464C
:101BC00021460C9A1698FFF7E1FC08B1012013E5B5
:101BD000BDF850102046FEF70AFB0C9848440C90C4
:101BE0001198A0EB0900119011980028DFD10BF19A
:101BF000010B05988345BBD3032F01D1284600E094
:101C00000798119000BF13991198884201D9139831
:101C100000E0119881464B4621460C9A1698FFF732
:101C2000B5FC08B10120E7E40C9848440C901198E9
:101C3000A0EB0900119011980028E4D100BF032FF8
:101C400002D10C2017900CE00F98B0F5803F02D322
:101C50000620179005E0022F01D1042000E00120AA
:101C6000179000BF189800F0080070B90F980A90FC
:101C700000200B9023460AA9DDE91602FEF740FF7B
:101C80000190019808B10198B6E400221146169817
:101C9000FFF737FC08B10120AEE40020ACE40000FF
:101CA0004E4F204E414D4520202020464154333296
:101CB000202020004E4F204E414D45202020204620
:101CC0004154202020202000525261417272416113
:101CD000F8FFFF00F7B582B016460398019001A8FF
:101CE00000F0E1FD0546002D02DA0B2005B0F0BD45
:101CF0000C4850F825400CB100202070029810B11B
:101D00000020029908700749029841F825000EB991
:101D10000020EBE7002202A903A800F083FF07469A
:101D20003846E3E7500000202DE9F74FADF50E7D72
:101D30000446164624B909200DF5117DBDE8F08F43
:101D400006F03F06324681A98FA800F06BFF0546DA
:101D5000002D72D1819882908199C1F810D082A80B
:101D60008F9900F02BFC05462DB99DF8330200F049
:101D7000800000B1062506F01C00002855D045B1B2
:101D8000042D03D182A8FFF7B9FA054646F00806EC
:101D90000AE09DF80E0200F0110008B1072503E0EB
:101DA00006F0040000B10825002D50D106F008000F
:101DB00000284CD05E488090899901F10E008099EE
:101DC00001F053FB899901F11600809901F04DFB58
:101DD0008999819800F0E6FD814620208999C87292
:101DE00000228999819801F02EFB899901F11C004C
:101DF000002101F03AFB01208199C870B9F1000F70
:101E000025D08198D0F834A00022494682A801F05C
:101E10001DFA0546DDB95146819801F07DF8054669
:101E2000A9F101008199486111E085B99DF80E0280
:101E300000F0100010B1042509E063E006F0020094
:101E400028B19DF80E0200F0010000B107254DB940
:101E500006F0080008B146F040068198406B206209
:101E600089986062002D5ED18999819800F09AFD71
:101E7000A060899901F11C0000F0A7FDE060819845
:101E800020608198C088A080267400206074E06182
:101E900060614FF4805104F12800FEF7A8F906F0C4
:101EA000200078B3E06868B3E06860618198408999
:101EB0008199898900FB01FBA768D4F80C800CE0AC
:101EC0003946204600F056FC0746012F00D802256F
:101ED000781C00B90125A8EB0B080DB9D845EFD83F
:101EE000A7617DB981988089B8FBF0F100FB118072
:101EF00040B139468198FEF7EBFB8246BAF1000FFC
:101F000001D102250FE081988089B8FBF0F05044A0
:101F1000E061E26981994878012304F12801FFF723
:101F200013FB00B101250DB100202060284603E716
:101F3000000021502DE9FF4F85B0044615469A4612
:101F4000DDF818B00020CAF8000003A9204601F00F
:101F50007CFC0490049810B9607C049018B104983B
:101F600009B0BDE8F08F207C00F0010008B907201F
:101F7000F6E76169E068401A01900198854200D94E
:101F8000019DB9E0606903998989B0FBF1F201FB19
:101F90001200002876D1606903998989B0FBF1F0BD
:101FA00003994989491E00EA0109B9F1000F17D1C7
:101FB000606910B9A068029004E02046A16900F0B1
:101FC000D9FB02900298022802D202206074C7E76F
:101FD0000298401C10B901206074C1E70298A0610A
:101FE000A1690398FEF774FB064616B902206074D7
:101FF000B6E74E4403988089B5FBF0F8B8F1000FBE
:102000002DD009EB080003994989884203D9039828
:102010004089A0EB0908039948784346324659465F
:10202000FFF792FA10B10120607499E7207C00F06C
:10203000800078B1E069801B40450BD2E169891BC3
:10204000039B9B8901FB03B003998A8904F1280152
:10205000FEF7B4F80398808900FB08F742E0E069D6
:10206000B04220D0207C00F0800080B1E26903996A
:102070004878012304F12801FFF788FA18B10120FC
:1020800060746DE710E0207C00F07F0020740399FD
:1020900048780123324604F12801FFF755FA10B1C0
:1020A000012060745CE7E661606903998989B0FB8F
:1020B000F1F201FB1200039989890F1AAF4200D98E
:1020C0002F46606903998989B0FBF1F201FB120187
:1020D00004F1280008443A46014600905846FEF7AD
:1020E0006DF800BFED1BDAF800003844CAF80000B4
:1020F000BB44606938446061002D7FF443AF002029
:102100002EE70000F8B504466946204601F09DFB25
:102110000646002E42D1207C00F0400000283DD031
:10212000207C00F0800070B1E269009948780123BA
:1021300004F12801FFF72AFA08B10120F8BD207C3C
:1021400000F07F002074164F216A009800F0E4FE32
:1021500006461EBB656AE87A40F02000E872294610
:10216000A268206801F06FF905F11C00E16801F038
:102170007CF9394605F1160001F077F9002105F1E7
:10218000120001F07EF901200099C870009801F05A
:102190008FF90646207C00F0BF0020743046CDE762
:1021A000000021502DE9FF4F85B0044615469B469F
:1021B000069802900020CBF8000003A9204601F009
:1021C00044FB0490049810B9607C049018B1049802
:1021D00009B0BDE8F08F207C00F0020008B90720AC
:1021E000F6E700BF606928446169884202D26069ED
:1021F000C0F1FF35D6E0606903998989B0FBF1F23F
:1022000001FB120000287DD1606903998989B0FB28
:10221000F1F003994989491E00EA010ABAF1000F59
:102220001ED1606938B9A76857B900212046FEF76A
:10223000A9FA074604E02046A169FEF7A3FA07467B
:1022400007B9B2E0012F02D102206074C0E7781C08
:1022500010B901206074BBE7A761A06800B9A7604E
:10226000207C00F0800078B1E2690399487801236E
:1022700004F12801FFF78AF910B101206074A7E783
:10228000207C00F07F002074A1690398FEF720FAFB
:10229000064616B9022060749AE75644039880896E
:1022A000B5FBF0F9B9F1000F31D00AEB0900039941
:1022B0004989884203D903984089A0EB0A09039908
:1022C00048784B4632460299FFF760F910B1012079
:1022D00060747DE7E069801B484511D2E069831B8B
:1022E0000398B0F80CC0029803FB0C010398828994
:1022F00004F12800FDF762FF207C00F07F002074CD
:10230000039800E017E0808900FB09F835E0E069F8
:10231000B0420FD0E168606988420BD203994878D7
:102320000123324604F12801FFF70EF910B1012014
:1023300060744DE7E661606903998989B0FBF1F249
:1023400001FB120003998989A1EB0008A84500D977
:10235000A846606903998989B0FBF1F201FB12017B
:1023600004F128000844424601900299FDF726FF37
:10237000207C40F08000207400BFA5EB0805DBF84E
:1023800000004044CBF8000002984044029060698D
:1023900040446061E1686069884201D9606900E099
:1023A000E068E060002D7FF426AF00BF207C40F0A5
:1023B0004000207400200BE7F0B502460E460020D6
:1023C0000021802A01DA104627E0B6F56A7F24D181
:1023D000124B45F220570025102414E0A7EB050C02
:1023E00005EB5C014FEA410C33F81CC0944500D169
:1023F0000BE04FEA410C33F81CC0944501DA0D465E
:1024000000E00F46641E002CE8D100BF2CB14FF055
:10241000010C0CEB410C33F81C00F0BD6C90010872
:102420002DE9F04102460F4600200021802A01D20A
:1024300090B22BE0B2F5803F28D2B7F56A7F25D164
:1024400095B2134B45F2205C0026102414E0ACEB4F
:10245000060806EB58014FEA410833F81880A845F2
:1024600000D10BE04FEA410833F81880A84501DAA3
:102470000E4600E08C46641E002CE8D100BF2CB153
:102480004FF0010808EB410833F81800BDE8F0816F
:10249000E83B000870B5B0F5803F4DD281B2B1F590
:1024A000805F01DA254E00E0254E324600BF32F84B
:1024B000023B0BB1994200DA3CE032F8024B2512A4
:1024C000E4B21E198E4230DD092D2CD2DFE805F072
:1024D00005090F13171B1F232700CE1A32F81610F9
:1024E00021E0CE1A06F001068E1BB1B21BE0A1F16D
:1024F0001006B1B217E0A1F12006B1B213E0A1F1CC
:102500003006B1B20FE0A1F11A06B1B20BE001F151
:102510000806B1B207E0A1F15006B1B203E0A1F59F
:10252000E356B1B200BF00BF04E0002DBFD102EB03
:102530004402BCE700BF084670BD0000F0E402089A
:10254000E2E602082DE9FF4107460D460021384624
:10255000FEF74EF80646022E06D0032E00D21DB915
:10256000304604B0BDE8F08100BF00240AE007F562
:10257000FB7101EB041101F1080000F026FA4DF89F
:102580002400641C042CF2D30DB1681E00E000206E
:10259000044600BF5DF8240028B15DF824103846D9
:1025A000FEF726F800E0032006462DB9022E03D3DD
:1025B000601C04460428EDD33046D2E72DE9F341F0
:1025C0000446276802E00198401C019001980078B9
:1025D0002F28F8D0019800785C28F4D00020A06063
:1025E00001980078202808D280212B200155002155
:1025F0002046FEF726FF054631E000BF01A9204630
:10260000FEF750F9054605B128E02046FEF78BFDA0
:1026100005462B20065D3DB1042D04D100BF06F018
:10262000040000B9052519E006F0040000B115E02A
:10263000A07900F0100008B905250FE0B9892069DC
:10264000B0FBF1F201FB120107F1380001EB0008C9
:102650004146384600F0A6F9A060CFE700BF284603
:10266000BDE8FC8138B504460D464FF4805000901B
:10267000A1B20A4801F066F804E0BDF80000401E6F
:1026800080B200904021054801F06EF818B9BDF8FD
:1026900000000028F1D1204638BD0000004800406D
:1026A0002DE9FF4F83B0074691461E460498016806
:1026B00039604168796001893981807AB872052E64
:1026C00019D9B04612E039F802BB00240CE0584694
:1026D00068F35F0080464FEA6B0B08F4803010B15E
:1026E000234888EA0008641C102CF0D3B9F80000D5
:1026F0000028E8D14646072400BF06F00F0000F18D
:10270000300A3609BAF1390F03DD0AF1070000F08B
:10271000FF0A2046641E01A901F800A00CB1002E9A
:10272000EBD17E2001A90855002509E0785DFEF770
:102730005DFC20B1601EA84200D106E06D1C6D1C3E
:10274000A54202D2785D2028F0D100BF00BF082C3E
:1027500004D22046641C01A9085C00E02020294620
:102760006D1C7854082DF2D307B0BDE8F08F00003F
:10277000211001002DE9F05F81460D46D9F8004097
:10278000022D02D3E069A84202D84FF0010887E089
:102790004FF0FF382078012804D002283AD00328CF
:1027A0007AD156E02E4606EB5606A089B6FBF0F02D
:1027B000A16A00EB010A5146204600F0ADFB00B1D2
:1027C0006DE03046761CA189B0FBF1F201FB1201ED
:1027D00004F13800475CA089B6FBF0F0A16A00EB79
:1027E000010A5146204600F097FB00B157E0A0894E
:1027F000B6FBF0F100FB116104F13800405C47EAE0
:10280000002705F0010008B1380901E0C7F30B000B
:10281000804644E0B4F80CA00AEBDA704010B5FB37
:10282000F0F0A16A00EB010B5946204600F074FB62
:1028300000B134E06800A189B0FBF1F201FB1201A4
:1028400004F1380001EB000A504600F0CAF8804657
:1028500025E0B4F80CA04FEAEA700AEB9070801003
:10286000B5FBF0F0A16A00EB010B5946204600F0E1
:1028700053FB00B113E0A800A189B0FBF1F201FB0A
:10288000120104F1380001EB000A504600F09DF8F7
:1028900020F0704803E0FFE74FF0010800BF00BFE1
:1028A0004046BDE8F09F70B504464FF0FF30266803
:1028B0003146324601B970BD00BF12F8013B202BF2
:1028C00001D33A2BF9D13A2B11D102250E78302EB3
:1028D00008DB0E78392E05DC8E1C964202D10E786C
:1028E000A6F13005022D01DA28462260E3E7002038
:1028F00000BFE0E74161704701617047F0B50A46EB
:102900001588ABB29579032D01D100241AE0957991
:1029100065B9557905F00F045579182D01D103617A
:1029200010E05579282D0DD143610BE0957905F024
:102930000805167906F004063543D67906F0030635
:1029400045EA0604DDB2A5B1002110E001258D4065
:102950001D405DB105688F000F26BE40B543056080
:1029600005688E0004FA06F635430560491C0829FF
:10297000ECD3FF2B15DD1B12002110E001258D404B
:102980001D405DB145688F000F26BE40B5434560D0
:1029900045688E0004FA06F635434560491C08294F
:1029A000ECD3F0BD70B505460C4604F11A0000F0FA
:1029B00018F806462878032805D104F1140000F021
:1029C00010F846EA0046304670BD0146C8788A785D
:1029D00042EA00204A7842EA00200A7842EA0020CF
:1029E0007047014648780A7842EA002070470000A4
:1029F00000F0C9FDFDF7CAFD43A0FDF789FC0122E7
:102A000047A14848FFF766F947490870084600782B
:102A10000D281CD14FF48053444A002140A0FEF7FA
:102A2000DFFD414908700846007860B901223CA1E9
:102A30000020FFF74FF9012239A13A48FFF74AF980
:102A4000394908700DE03AA0FDF762FC09E036480C
:102A5000007818B13AA0FDF75BFC02E03FA0FDF75B
:102A600057FC0B2246A14948FFF75EF92E49087032
:102A700008460078A8B9464B432246494348FFF729
:102A800091FB294908700846007818B942A0FDF763
:102A90003FFC02E047A0FDF73BFC3C48FEF78FFD02
:102AA00002E049A0FDF734FC012235A13748FFF7C9
:102AB0003BF91D49087008460078B8B9344B4FF40B
:102AC000806246493148FFF735FA174908700846D1
:102AD000007838B942A0FDF71BFC404946A0FDF73D
:102AE00017FC06E04AA0FDF713FC02E036A0FDF754
:102AF0000FFC2648FEF763FD012209A10020FFF725
:102B0000E9F800BFFEE700006861726477617265F2
:102B100020696E697420636F6D706C6574650A005E
:102B2000303A00006000002004000020C024002093
:102B3000466F726D6174206661696C65640A00009D
:102B400066696C6573797374656D206D6F756E74ED
:102B5000206661696C65640A0000000066696C6546
:102B60002073797374656D206D6F756E7465642064
:102B70007375636365737366756C6C790A00000026
:102B8000303A66696C652E747874000098100020E5
:102B9000080000200C0000207772697465206669C7
:102BA0006C65207375636365737366756C6C790A05
:102BB0000000000077726974652066696C652066A4
:102BC00061696C65640A00004F70656E2066696C0F
:102BD00065206661696C65640A000000C020002001
:102BE000726561642066696C6520737563636573E3
:102BF0007366756C6C790A00526561642066696C55
:102C00006520646174612061733A200A25730000B5
:102C1000726561642066696C65206661696C6564D3
:102C20000A0000002DE9F74F84B0002105980160EB
:102C30000498FFF738FE03900398002803DA0B206E
:102C400007B0BDE8F08FAF49039851F820400CB9A8
:102C50000C20F5E705980460069800F0FE00069049
:102C6000207878B16078FEF782FC074607F0010013
:102C700040B9069820B107F0040008B10A20DFE748
:102C80000020DDE700202070039860706078FEF778
:102C90002BFC074607F0010008B10320D0E7069897
:102CA00020B107F0040008B10A20C9E7607804F1F8
:102CB0000C020221FEF725FC08B10120C0E7A08923
:102CC000B0F5805F07DCA089B0F5007F03DBA08949
:102CD000411E084008B10120B2E700212046FFF75D
:102CE00031FC0546042D01D10120A9E7022D01D3B5
:102CF0000D20A5E7D4F8349004F14300FFF771FEEE
:102D0000A189884201D00D209AE704F14E00FFF717
:102D100068FE064626B904F15C00FFF756FE06463B
:102D200026624820005DA070A078012804D0A07819
:102D3000022801D00D2083E7A07846434520005D9E
:102D40006081608918B16089411E084008B10D207A
:102D500076E704F14900FFF744FE2081A089C117FE
:102D600000EBD1614911228992FBF1F301FB1321A0
:102D700009B10D2064E704F14B00FFF732FE8246F3
:102D8000BAF1000F04D104F15800FFF71EFE82468D
:102D900004F14600FFF725FE8346BBF1000F01D189
:102DA0000D204DE7A089C11700EBD161491122899F
:102DB00092FBF1F10BEB06021144029102998A4554
:102DC00001D20D203CE70298AAEB00006189B0FB1C
:102DD000F1F8B8F1000F01D10D2031E700254A4884
:102DE000804500D803254FF6F570804500D80225B0
:102DF00040F6F570804500D801250DB90D201FE77C
:102E000008F10200E061C4F8249009EB0B00A06215
:102E1000029848442063032D13D104F16200FFF7A8
:102E2000E0FD08B10D200BE7208908B10D2007E770
:102E300004F16400FFF7C9FDE062E06980000190E1
:102E400014E0208908B90D20FAE6A06A3044E06257
:102E5000022D02D1E069400007E0207F00F0010070
:102E6000E16901EB410100EB51000190A089401E96
:102E700001990844A189B0FBF1F0216A884201D987
:102E80000D20DDE64FF0FF30A061606180202071F1
:102E9000032D2DD104F16800FFF7A3FD012827D1F0
:102EA00009F10101204600F037F808BB002020712D
:102EB00004F23620FFF795FD4AF65521884217D1D6
:102EC00004F13800FFF781FD1049884210D104F564
:102ED0000770FFF77AFD0E49884209D104F50870A2
:102EE000FFF773FDA06104F50970FFF76EFD6061E7
:102EF000257008480088401C80B206490880E080A0
:102F000000209DE650000020F5FFFF0F5252614166
:102F1000727241615800002070B504460D460026CB
:102F2000606BA84210D0204600F008FB06465EB950
:102F3000607801232A4604F13801FEF705FB10B141
:102F40004FF0FF3501266563304670BD2DE9F0472F
:102F50000B4614464FF0000C00BF2C4A1268C2F317
:102F600002211D4626460A46C2F10709B9F1040F9F
:102F700002D94FF0040901E0C2F10709C84602F185
:102F80000409B9F1070F02D24FF0000901E0A2F1E4
:102F900003094F464FF0010909FA08F9A9F101099F
:102FA00009EA050909FA07F94FF0010A0AFA07FACE
:102FB000AAF1010A0AEA060A49EA0A09CC460146C8
:102FC0006246002904DB15072E0E114D6E5407E0F2
:102FD00015072F0E0D4D0C3501F00F06361FAF559E
:102FE00000BF014600290DDB00BF00BF01F01F0537
:102FF0000122AA404D09AD0005F1E025C5F80021E8
:1030000000BF00BF00BFBDE8F08700000CED00E08E
:1030100000E400E000BF00F00702064B19684FF61D
:10302000FF031940044B0B4343EA0221014B196093
:1030300000BF70470CED00E00000FA052DE9F05FDD
:1030400004460D4616464FF00209022D72D3E06980
:10305000A8426FD92078012804D0022857D003282D
:1030600011D179E02F4607EB5707A089B7FBF0F0A5
:10307000A16A00EB010A51462046FFF74DFF814649
:10308000B9F1000F00D09DE038467F1CA189B0FB4C
:10309000F1F201FB120104F1380001EB000805F028
:1030A000010028B1F1B298F8000061F31F1000E0B0
:1030B000304688F800000120E070A089B7FBF0F0EE
:1030C000A16A00EB010A51462046FFF725FF814621
:1030D000B9F1000F00D075E0A089B7FBF0F100FB5B
:1030E000117104F1380001EB000805F0010010B186
:1030F000C6F3071006E098F8000000F0F000C6F3F1
:103100000321084388F800000120E0705AE0B4F879
:103110000CA00AEBDA704010B5FBF0F0A16A00EBEE
:10312000010B59462046FFF7F7FE8146B9F1000F23
:1031300001D047E047E06800A189B0FBF1F201FB54
:10314000120104F1380001EB000AB1B2504600F060
:1031500098F90120E07035E0B4F80CA04FEAEA706D
:103160000AEB90708010B5FBF0F0A16A00EB010B48
:1031700059462046FFF7D0FE8146B9F1000F00D036
:1031800020E0A800A189B0FBF1F201FB120104F1DB
:10319000380001EB000A5046FFF717FC66F31B00EE
:1031A0000646A800A189B0FBF1F201FB120104F16F
:1031B000380001EB000A3146504600F056F9012074
:1031C000E07000BF00BF4846BDE8F09F2DE9F04722
:1031D00007460C461546984684F80D800F20E0728D
:1031E00000202073002104F11A0000F04AF9681E43
:1031F00000EB800101EBC00900200646824600BFBB
:103200004FF6FF70864204D0484609F1010937F8AD
:1032100010600D4911F80A100819314600F031F913
:103220000EB94FF6FF760AF1010082460D28E7D36A
:103230004FF6FF70864202D037F8190008B945F002
:1032400040052570BDE8F087A43B00082DE9F04754
:1032500081460E4617464FF00008D9F80040022E6E
:1032600002D3E069B04202D80220BDE8F08767B11E
:1032700000BF4FF0FF3239462046FFF7DFFE8046A1
:10328000B8F1000F01D04046EFE700BF3146484695
:10329000FFF770FA054605B922E0012D01D10220A1
:1032A000E3E7681C08B90120DFE700223146204629
:1032B000FFF7C4FE8046B8F1000F01D04046D4E7C6
:1032C000D4E90610801E814206D2A069401CA0618C
:1032D000207940F0010020712E46E069B042D5D837
:1032E00000BF0020C1E70021017041708170C170F2
:1032F0000171417181710121C1717047026861F3EF
:103300008612026070470146C86880B27047C1608B
:1033100070470246002093680B4003B900E001208B
:103320007047C26922F40062C2610A7862B9026819
:1033300022F400420260026822F4804202600268C5
:1033400022F48062026036E00A78012A0ED1026817
:1033500022F400420260026822F4804202600268A5
:1033600022F4806202F58062026024E00A78022A78
:103370000ED1026822F4004202F5004202600268A7
:1033800022F480420260026822F48062026012E04D
:103390000A78032A0FD1026822F4004202F50042A3
:1033A0000260026822F4804202F5804202600268F4
:1033B00022F480620260CB79026863F349220260E2
:1033C0004A78012A09D1CA79012A06D1026822F471
:1033D000807202F58072026003E0026822F480725B
:1033E00002604B78026863F3820202608A78072ADF
:1033F0000BDD426822F4807202F5807242608A78A6
:10340000036862F3C503036008E0426822F4807237
:1034100042608B78026863F3C5020260CB78026871
:1034200063F3C71202600B79026863F3CB22026078
:103430004B79026863F3410202608B79026863F39F
:1034400000020260704770B506460C461546A9B2E8
:1034500004F11A0000F015F83078032804D1290C83
:1034600004F1140000F00DF870BD00F8011B090A0A
:1034700000F8011B090A00F8011B090A00F8011BEA
:10348000704700F8011B091200F8011B704730B5A6
:10349000014600200B2200BF431003EBC01411F8BB
:1034A000015B6319D8B2531E1A1EF5D130BD00005E
:1034B00070B50446204600F041F80546002D37D18E
:1034C000207803282DD1207901282AD1010304F185
:1034D0003800FCF78CFE4AF6552104F23620FFF73F
:1034E000D0FF144904F13800FFF7BFFF124904F57B
:1034F0000770FFF7BAFF04F50870A169FFF7B5FF81
:1035000004F509706169FFF7B0FF606A401C6063F1
:103510006078012304F13801626BFEF737F8002070
:103520002071607800221146FDF7EBFF00B1012504
:10353000284670BD525261417272416170B50446B5
:103540000025E078E8B16078012304F13801626B6E
:10355000FEF71CF8A0B90020E070A16A606B401A69
:10356000216A88420DD2A07802280AD1236A616BB1
:10357000CA186078012304F13801FEF707F800E06B
:103580000125284670BD10B5FDF7F2FC0121084663
:10359000FDF796FB00BFFDF77BFC0028FBD0012266
:1035A0003B210220FDF7AEFC0020FDF767FC012166
:1035B0000220FDF785FB00BF1920FDF747FC01281D
:1035C000FAD10020FDF74AFB0420FDF75BFB042045
:1035D000FDF74EFB0120FDF75FFB0220FDF7F4FC39
:1035E00000BFFDF7FBFC0228FBD10020FDF754FBD8
:1035F00000F002F810BD00002DE9F047002600247D
:1036000000250027A046A146FDF7E8FC8246BAF156
:10361000000F06D0BAF1010F15D0BAF1020F46D152
:1036200015E02D48406DC0F3402040B12A48006BA2
:10363000C0F3406018B129482949086002E02948D0
:103640002749086037E027482549086033E02248C9
:103650004068C0F3004720484068C0F383441E48D8
:103660004068C0F341750DB90F2C03D12801401CEF
:10367000044400E0A41C27B91B48604318490860B3
:1036800014E015484068C0F3404058B11248406DFE
:10369000C0F30136B01C1349B1FBF0F06043104990
:1036A000086003E00F4860430D49086003E00D48DF
:1036B0000B49086000BF00BF07484068C0F303180B
:1036C0000A4810F808900648006820FA09F00449F2
:1036D0000860BDE8F087000000100240006CDC02CA
:1036E0000000002000127A0000093D006C3B000839
:1036F0002DE9F0410646356815F8014B2046FDF7E7
:1037000075FC60B115F8017B3846FDF789FC18B9E6
:103710004FF0FF30BDE8F08107EB042084B24CB1DC
:103720004FF46A712046FEF747FE044614B94FF085
:10373000FF30EFE7A04635604046EBE701464868BA
:1037400080B27047C1F3080242607047C26861F3FB
:103750004D32C260704701F01F0212B10268426828
:1037600001E0CA430260704702461068084008B191
:10377000012070470020FCE72DE9F04385B00446A6
:103780000F46904699466846FDF7CAFA18488442A3
:1037900008D01848844205D01748844202D0174800
:1037A000844201D1029E00E0039E06EB86004000A9
:1037B000B0FBF7F50A20B5FBF0F100FB115005282E
:1037C00003D20A20B5FBF0F503E00A20B5FBF0F0C8
:1037D000451CA06865F30F00A060E06868F30C303A
:1037E000E060206969F30D30206105B0BDE8F08329
:1037F0000038014000600140006401400068014061
:1038000030B5012A0BD100EB11431B6801F01F05F5
:103810000124AC40234300EB114423600AE000EB99
:1038200011431B6801F01F050124AC40A34300EBCA
:103830001144236030BDC26861F38202C2607047E8
:10384000C26861F3C302C260704770B504460D469A
:1038500009268CB1206878B12068007860B1A08812
:103860002168C988884207D121684878FDF77FFE22
:1038700000F0010000B900260EB9206800E0002029
:103880002860304670BD2DE9F05F07460E461446AD
:103890004FF0000B00F058F906F0FF09C9F10000E5
:1038A000C5B22046E11704EB1161C1F30728E11707
:1038B00004EB11610912A4EB012101F0FF0AB9F137
:1038C000000F20D1B8F1000F05D12246314638460D
:1038D00000F068F863E009E04FF480723146384642
:1038E00000F060F807F5807706F58076B8F1000003
:1038F000A8F1010101F0FF08EED1524631463846E9
:1039000000F050F84BE0B8F1000F17D1A54205DDEB
:1039100022463146384600F045F840E02A46314616
:10392000384600F03FF8601B00F0FF0B2F442E4498
:103930005A463146384600F035F830E0601B84B214
:103940002046E11704EB1161C1F30728E11704EBEE
:1039500011610912A4EB012101F0FF0A2A46314648
:10396000384600F01FF82E442F4409E04FF48072CF
:103970003146384600F016F807F5807706F5807670
:10398000B8F10000A8F1010101F0FF08EED1BAF191
:10399000000F04D052463146384600F003F8BDE827
:1039A000F09F000070B505460C46164600F0CCF8B6
:1039B0004FF480511448FEF79DFF0220FCF7A4FD50
:1039C000C4F30740FCF7A0FDC4F30720FCF79CFDFF
:1039D000E0B2FCF799FDB6F5807F02DD0BA0FCF7A5
:1039E00097FC03E02878FCF78FFD6D1C301EA6F1D4
:1039F00001018EB2F6D14FF480510348FEF77CFFEF
:103A000000F08AF870BD0000000C014057323551BB
:103A100058585F50616765577269746520697320F3
:103A2000746F6F206C617267650A00002DE9F041C8
:103A300000240025002700264FF480510F48FEF790
:103A400059FF9020FCF760FDFF20FCF75DFDFF2093
:103A5000FCF75AFD0020FCF757FDFCF74FFDC4B200
:103A6000FCF74CFDC5B24FF480510448FEF744FF0B
:103A700045EA04263046BDE8F0810000000C014014
:103A800070B505460C4616464FF480510F48FEF7B8
:103A900031FF0320FCF738FDC4F30740FCF734FD89
:103AA000C4F30720FCF730FDE0B2FCF72DFD03E086
:103AB000FCF724FD28706D1C301EA6F10106F7D11D
:103AC0004FF480510148FEF717FF70BD000C014014
:103AD00010B5044600F038F800F01EF84FF480519D
:103AE0000C48FEF707FF2020FCF70EFDC4F307404B
:103AF000FCF70AFDC4F30720FCF706FDE0B2FCF773
:103B000003FD4FF480510348FEF7F6FE00F004F881
:103B100010BD0000000C014010B54FF48051094861
:103B2000FEF7E8FE0520FCF7EFFC00BFFCF7E6FC23
:103B300000F001000028F9D14FF480510148FEF750
:103B4000DBFE10BD000C014010B54FF4805106485B
:103B5000FEF7D0FE0620FCF7D7FC4FF48051024858
:103B6000FEF7CAFE10BD0000000C0140000000007E
:103B7000000000000102030406070809000000001D
:103B8000000000000102030406070809000000000D
:103B900001020304000000000102030402040608FD
:103BA000020C081001030507090E10121416181C48
:103BB0001E81FE0000407E80FE0000000100040027
:103BC000100040000001000200000100020004009B
:103BD00008001000200000000700000000000000A6
:103BE0000000000000000000A400E8A1A700ECA174
:103BF000A800A7A1B000E3A1B100C0A1B700A4A193
:103C0000D700C1A1E000A4A8E100A2A8E800A8A8EC
:103C1000E900A6A8EA00BAA8EC00ACA8ED00AAA8A2
:103C2000F200B0A8F300AEA8F700C2A1F900B4A852
:103C3000FA00B2A8FC00B9A80101A1A81301A5A827
:103C40001B01A7A82B01A9A84401BDA84801BEA833
:103C50004D01ADA86B01B1A8CE01A3A8D001ABA8BE
:103C6000D201AFA8D401B3A8D601B5A8D801B6A88F
:103C7000DA01B7A8DC01B8A85102BBA86102C0A84C
:103C8000C702A6A1C902A5A1CA0240A8CB0241A8A9
:103C9000D90242A89103A1A69203A2A69303A3A6C8
:103CA0009403A4A69503A5A69603A6A69703A7A684
:103CB0009803A8A69903A9A69A03AAA69B03ABA654
:103CC0009C03ACA69D03ADA69E03AEA69F03AFA624
:103CD000A003B0A6A103B1A6A303B2A6A403B3A6F2
:103CE000A503B4A6A603B5A6A703B6A6A803B7A6C0
:103CF000A903B8A6B103C1A6B203C2A6B303C3A663
:103D0000B403C4A6B503C5A6B603C6A6B703C7A623
:103D1000B803C8A6B903C9A6BA03CAA6BB03CBA6F3
:103D2000BC03CCA6BD03CDA6BE03CEA6BF03CFA6C3
:103D3000C003D0A6C103D1A6C303D2A6C403D3A691
:103D4000C503D4A6C603D5A6C703D6A6C803D7A65F
:103D5000C903D8A60104A7A71004A1A71104A2A70C
:103D60001204A3A71304A4A71404A5A71504A6A7C7
:103D70001604A8A71704A9A71804AAA71904ABA793
:103D80001A04ACA71B04ADA71C04AEA71D04AFA763
:103D90001E04B0A71F04B1A72004B2A72104B3A733
:103DA0002204B4A72304B5A72404B6A72504B7A703
:103DB0002604B8A72704B9A72804BAA72904BBA7D3
:103DC0002A04BCA72B04BDA72C04BEA72D04BFA7A3
:103DD0002E04C0A72F04C1A73004D1A73104D2A755
:103DE0003204D3A73304D4A73404D5A73504D6A707
:103DF0003604D8A73704D9A73804DAA73904DBA7D3
:103E00003A04DCA73B04DDA73C04DEA73D04DFA7A2
:103E10003E04E0A73F04E1A74004E2A74104E3A772
:103E20004204E4A74304E5A74404E6A74504E7A742
:103E30004604E8A74704E9A74804EAA74904EBA712
:103E40004A04ECA74B04EDA74C04EEA74D04EFA7E2
:103E50004E04F0A74F04F1A75104D7A710205CA986
:103E6000132043A81420AAA1152044A81620ACA111
:103E70001820AEA11920AFA11C20B0A11D20B1A116
:103E8000252045A82620ADA13020EBA13220E4A1B9
:103E90003320E5A1352046A83B20F9A1AC208000C5
:103EA0000321E6A1052147A8092148A81621EDA173
:103EB000212159A96021F1A26121F2A26221F3A27C
:103EC0006321F4A26421F5A26521F6A26621F7A27E
:103ED0006721F8A26821F9A26921FAA26A21FBA24E
:103EE0006B21FCA27021A1A27121A2A27221A3A226
:103EF0007321A4A27421A5A27521A6A27621A7A24E
:103F00007721A8A27821A9A27921AAA29021FBA1B8
:103F10009121FCA19221FAA19321FDA1962149A80A
:103F200097214AA898214BA899214CA80822CAA1F8
:103F30000F22C7A11122C6A115224DA81A22CCA179
:103F40001D22D8A11E22DEA11F224EA82022CFA111
:103F500023224FA82522CEA12722C4A12822C5A111
:103F60002922C9A12A22C8A12B22D2A12E22D3A163
:103F70003422E0A13522DFA13622C3A13722CBA112
:103F80003D22D7A14822D6A14C22D5A1522250A829
:103F90006022D9A16122D4A16422DCA16522DDA125
:103FA000662251A8672252A86E22DAA16F22DBA1F5
:103FB000952292A89922D1A1A522CDA1BF2253A8D2
:103FC0001223D0A16024D9A26124DAA26224DBA248
:103FD0006324DCA26424DDA26524DEA26624DFA2C1
:103FE0006724E0A26824E1A26924E2A27424C5A2A5
:103FF0007524C6A27624C7A27724C8A27824C9A2B1
:104000007924CAA27A24CBA27B24CCA27C24CDA280
:104010007D24CEA27E24CFA27F24D0A28024D1A250
:104020008124D2A28224D3A28324D4A28424D5A220
:104030008524D6A28624D7A28724D8A28824B1A218
:104040008924B2A28A24B3A28B24B4A28C24B5A260
:104050008D24B6A28E24B7A28F24B8A29024B9A230
:104060009124BAA29224BBA29324BCA29424BDA200
:104070009524BEA29624BFA29724C0A29824C1A2D0
:104080009924C2A29A24C3A29B24C4A20025A4A955
:104090000125A5A90225A6A90325A7A90425A8A944
:1040A0000525A9A90625AAA90725ABA90825ACA914
:1040B0000925ADA90A25AEA90B25AFA90C25B0A9E4
:1040C0000D25B1A90E25B2A90F25B3A91025B4A9B4
:1040D0001125B5A91225B6A91325B7A91425B8A984
:1040E0001525B9A91625BAA91725BBA91825BCA954
:1040F0001925BDA91A25BEA91B25BFA91C25C0A924
:104100001D25C1A91E25C2A91F25C3A92025C4A9F3
:104110002125C5A92225C6A92325C7A92425C8A9C3
:104120002525C9A92625CAA92725CBA92825CCA993
:104130002925CDA92A25CEA92B25CFA92C25D0A963
:104140002D25D1A92E25D2A92F25D3A93025D4A933
:104150003125D5A93225D6A93325D7A93425D8A903
:104160003525D9A93625DAA93725DBA93825DCA9D3
:104170003925DDA93A25DEA93B25DFA93C25E0A9A3
:104180003D25E1A93E25E2A93F25E3A94025E4A973
:104190004125E5A94225E6A94325E7A94425E8A943
:1041A0004525E9A94625EAA94725EBA94825ECA913
:1041B0004925EDA94A25EEA94B25EFA9502554A87C
:1041C000512555A8522556A8532557A8542558A817
:1041D000552559A856255AA857255BA858255CA8E7
:1041E00059255DA85A255EA85B255FA85C2560A8B7
:1041F0005D2561A85E2562A85F2563A8602564A887
:10420000612565A8622566A8632567A8642568A856
:10421000652569A866256AA867256BA868256CA826
:1042200069256DA86A256EA86B256FA86C2570A8F6
:104230006D2571A86E2572A86F2573A8702574A8C6
:10424000712575A8722576A8732577A8812578A889
:10425000822579A883257AA884257BA885257CA832
:1042600086257DA887257EA8882580A8892581A800
:104270008A2582A88B2583A88C2584A88D2585A8CE
:104280008E2586A88F2587A8932588A8942589A898
:1042900095258AA8A025F6A1A125F5A1B225F8A10A
:1042A000B325F7A1BC258BA8BD258CA8C625F4A1F4
:1042B000C725F3A1CB25F0A1CE25F2A1CF25F1A1F1
:1042C000E2258DA8E3258EA8E4258FA8E52590A8F2
:1042D0000526EFA10626EEA1092691A84026E2A117
:1042E0004226E1A10030A1A10130A2A10230A3A188
:1042F0000330A8A10530A9A1063065A9073096A909
:104300000830B4A10930B5A10A30B6A10B30B7A16D
:104310000C30B8A10D30B9A10E30BAA10F30BBA13D
:104320001030BEA11130BFA1123093A81330FEA1EE
:104330001430B2A11530B3A11630BCA11730BDA105
:104340001D3094A81E3095A8213040A9223041A9E3
:10435000233042A9243043A9253044A9263045A959
:10436000273046A9283047A9293048A94130A1A4BF
:104370004230A2A44330A3A44430A4A44530A5A451
:104380004630A6A44730A7A44830A8A44930A9A421
:104390004A30AAA44B30ABA44C30ACA44D30ADA4F1
:1043A0004E30AEA44F30AFA45030B0A45130B1A4C1
:1043B0005230B2A45330B3A45430B4A45530B5A491
:1043C0005630B6A45730B7A45830B8A45930B9A461
:1043D0005A30BAA45B30BBA45C30BCA45D30BDA431
:1043E0005E30BEA45F30BFA46030C0A46130C1A401
:1043F0006230C2A46330C3A46430C4A46530C5A4D1
:104400006630C6A46730C7A46830C8A46930C9A4A0
:104410006A30CAA46B30CBA46C30CCA46D30CDA470
:104420006E30CEA46F30CFA47030D0A47130D1A440
:104430007230D2A47330D3A47430D4A47530D5A410
:104440007630D6A47730D7A47830D8A47930D9A4E0
:104450007A30DAA47B30DBA47C30DCA47D30DDA4B0
:104460007E30DEA47F30DFA48030E0A48130E1A480
:104470008230E2A48330E3A48430E4A48530E5A450
:104480008630E6A48730E7A48830E8A48930E9A420
:104490008A30EAA48B30EBA48C30ECA48D30EDA4F0
:1044A0008E30EEA48F30EFA49030F0A49130F1A4C0
:1044B0009230F2A49330F3A49B3061A99C3062A99E
:1044C0009D3066A99E3067A9A130A1A5A230A2A502
:1044D000A330A3A5A430A4A5A530A5A5A630A6A564
:1044E000A730A7A5A830A8A5A930A9A5AA30AAA534
:1044F000AB30ABA5AC30ACA5AD30ADA5AE30AEA504
:10450000AF30AFA5B030B0A5B130B1A5B230B2A5D3
:10451000B330B3A5B430B4A5B530B5A5B630B6A5A3
:10452000B730B7A5B830B8A5B930B9A5BA30BAA573
:10453000BB30BBA5BC30BCA5BD30BDA5BE30BEA543
:10454000BF30BFA5C030C0A5C130C1A5C230C2A513
:10455000C330C3A5C430C4A5C530C5A5C630C6A5E3
:10456000C730C7A5C830C8A5C930C9A5CA30CAA5B3
:10457000CB30CBA5CC30CCA5CD30CDA5CE30CEA583
:10458000CF30CFA5D030D0A5D130D1A5D230D2A553
:10459000D330D3A5D430D4A5D530D5A5D630D6A523
:1045A000D730D7A5D830D8A5D930D9A5DA30DAA5F3
:1045B000DB30DBA5DC30DCA5DD30DDA5DE30DEA5C3
:1045C000DF30DFA5E030E0A5E130E1A5E230E2A593
:1045D000E330E3A5E430E4A5E530E5A5E630E6A563
:1045E000E730E7A5E830E8A5E930E9A5EA30EAA533
:1045F000EB30EBA5EC30ECA5ED30EDA5EE30EEA503
:10460000EF30EFA5F030F0A5F130F1A5F230F2A5D2
:10461000F330F3A5F430F4A5F530F5A5F630F6A5A2
:10462000FC3060A9FD3063A9FE3064A90531C5A83E
:104630000631C6A80731C7A80831C8A80931C9A8DA
:104640000A31CAA80B31CBA80C31CCA80D31CDA8AA
:104650000E31CEA80F31CFA81031D0A81131D1A87A
:104660001231D2A81331D3A81431D4A81531D5A84A
:104670001631D6A81731D7A81831D8A81931D9A81A
:104680001A31DAA81B31DBA81C31DCA81D31DDA8EA
:104690001E31DEA81F31DFA82031E0A82131E1A8BA
:1046A0002231E2A82331E3A82431E4A82531E5A88A
:1046B0002631E6A82731E7A82831E8A82931E9A85A
:1046C0002032E5A22132E6A22232E7A22332E8A27A
:1046D0002432E9A22532EAA22632EBA22732ECA24A
:1046E0002832EDA22932EEA231325AA9A33249A9C9
:1046F0008E334AA98F334BA99C334CA99D334DA9C6
:104700009E334EA9A1334FA9C43350A9CE3351A92A
:10471000D13352A9D23353A9D53354A9004EBBD2B9
:10472000014EA1B6024E4081034EDFC6044E4181C8
:10473000054E4281064E4381074EF2CD084EC9D543
:10474000094EFDC80A4ECFC90B4EC2CF0C4EA2D89F
:104750000D4EBBB20E4EEBD30F4E4481104EA4D87B
:10476000114EF3B3124E4581134EA8D7144ED2C743
:10477000154EA7D8164EC0CA174E4681184EF0C720
:10478000194EFBB11A4EB5D21B4ED4B41C4EABB66B
:104790001D4EBFCB1E4EA9D81F4E4781204E4881CB
:1047A000214E4981224EAAB6234E4A81244EBDC1D4
:1047B000254ECFD1264E4B81274EA5C9284EADD8C8
:1047C000294E4C812A4EF6B82B4EBED12C4EDCE33E
:1047D0002D4ED0D62E4E4D812F4E4E81304EE1B70C
:1047E000314E4F81324EAEB4334E5081344ED9C12A
:1047F000354E5181364EBCD8374E5281384EE8CDB9
:10480000394EA4B53A4EAACE3B4EF7D63C4E538114
:104810003D4EF6C03E4ED9BE3F4EAFD8404E5481BD
:10482000414E5581424E5681434ECBC4444E578132
:10483000454EC3BE464E5881474EB1D8484EB4C3CC
:10484000494EE5D24A4E59814B4EAED64C4EDACE49
:104850004D4EA7D54E4EF5BA4F4EA6B7504ED6C0C8
:10486000514E5A81524EB9C6534ED2C5544EC7C747
:10487000554E5B81564ED4B9574E5C81584ECBB3E2
:10488000594ED2D25A4E5D815B4E5E815C4EBFD88E
:104890005D4EC5BE5E4EF2C65F4EB2D2604EB0CF28
:1048A000614EE7CF624E5F81634E6081644E6181ED
:1048B000654E6281664EE9CA674E6381684E6481C7
:1048C000694EC0D86A4E65816B4E66816C4E6781B9
:1048D0006D4E68816E4E69816F4E6A81704EF2C274
:1048E000714ED2C2724E6B81734EE9C8744E6C81A8
:1048F000754E6D81764E6E81774E6F81784E7081E8
:10490000794E71817A4E72817B4E73817C4E7481B7
:104910007D4E75817E4EACC77F4E7681804E77810D
:10492000814E7881824E7981834E7A81844E7B815B
:10493000854E7C81864ECBC1874E7D81884EE8D3E3
:10494000894EF9D58A4E7E818B4EC2CA8C4EFEB6F8
:104950008D4EA1D88E4EDAD38F4EF7BF904E808108
:10496000914EC6D4924EA5BB934EC1D8944EE5CE7F
:10497000954EAEBE964E8181974E8281984EA8D8B4
:10498000994E83819A4EC7D19B4EA9D09C4E84816B
:104990009D4E85819E4E86819F4EBDD8A04EEFD9FB
:1049A000A14EF6CDA24EBABFA34E8781A44EBBBD89
:1049B000A54EA5BAA64EE0D2A74EFAB2A84EE0BACE
:1049C000A94EB6C4AA4E8881AB4EEDCFAC4EA9BE5F
:1049D000AD4EA4CDAE4EC1C1AF4E8981B04E8A81DD
:1049E000B14E8B81B24ED7C7B34EF1D9B44E8C8144
:1049F000B54EF4D9B64E8D81B74E8E81B84E8F81AB
:104A0000B94E9081BA4ECBC8BB4EE9D8BC4E91810D
:104A1000BD4E9281BE4E9381BF4EDAD2C04EB2CA15
:104A2000C14ECAC8C24EECD8C34EEAD8C44EC6D88E
:104A3000C54EF6BDC64ECDC6C74EF0B3C84E948126
:104A4000C94EEBD8CA4EF1BDCB4EE9BDCC4E9581D7
:104A5000CD4ED4C8CE4ED3B4CF4E9681D04E978192
:104A6000D14ED8C2D24E9881D34ED6B2D44ED0D7E2
:104A7000D54ECBCAD64EFBCBD74ECCD5D84EB6B83A
:104A8000D94EC9CFDA4E9981DB4E9A81DC4E9B819B
:104A9000DD4EDAD9DE4EF0D8DF4EAAC7E04E9C815B
:104AA000E14EEED8E24E9D81E34EFAB4E44EEEC103
:104AB000E54ED4D2E64E9E81E74E9F81E84EEDD87A
:104AC000E94EA081EA4EC7D2EB4EEFD8EC4EC7C3F9
:104AD000ED4EA181EE4EA281EF4EA381F04EF6D1B4
:104AE000F14EA481F24ED9D6F34EF2D8F44EA58100
:104AF000F54EF5D8F64EFEBCF74EDBBCF84EA6815F
:104B0000F94EA781FA4EA881FB4ECEC8FC4EA98172
:104B1000FD4EDDB7FE4EAA81FF4EC2B7004FAB81FE
:104B2000014FF3C6024FAC81034FAD81044FAE81FC
:104B3000054FAF81064FB081074FB181084FB28159
:104B4000094FF8D80A4FC1D20B4FB3810C4FB48133
:104B50000D4FE9CE0E4FBFBC0F4FFCB7104FA5B79E
:104B6000114FDDD0124FB581134FB681144FB7816D
:104B7000154FB881164FB981174FDAD6184FC5D3E4
:104B8000194FEFBB1A4FE1BB1B4FF1D81C4FBA8135
:104B90001D4FBB811E4FA1C91F4FB0CE204FABB4DC
:104BA000214FBC81224FF3D8234FBD81244FCBC965
:104BB000254FF6D8264FD7C2274FF7D8284FBE81AA
:104BC000294FBF812A4FB1CE2B4FF9D82C4FC0812E
:104BD0002D4FC1812E4FC2812F4FAEB2304FC0B981
:104BE000314FC381324FA3D9334FC481344FE9B021
:104BF000354FC581364FE6C1374FC681384FECC9B6
:104C0000394FC7813A4FC5CB3B4FC8813C4FC6CBCC
:104C10003D4FA4D93E4FC9813F4FCA81404FCB8100
:104C2000414FCC81424FCD81434FE8B5444FCE81B7
:104C3000454FCF81464FABB5474FD081484FD181CB
:104C4000494FD2814A4FD3814B4FD4814C4FD581AC
:104C50004D4FBBCE4E4FCDB54F4FA1D7504FF4D790
:104C6000514FD3D3524FD681534FE5CC544FD781B8
:104C7000554FCEBA564FD881574FA2D9584FDCD98D
:104C8000594FE0D35A4FFDD85B4FF0B75C4FF7D781
:104C90005D4FFED85E4FFAD85F4FA1D9604FE3C495
:104CA000614FD981624FDA81634FB6D3644FF4D834
:104CB000654FDDD9664FDB81674FFBD8684FDC81DC
:104CC000694FE5C56A4FDD816B4FDE816C4FD0C007
:104CD0006D4FDF816E4FE0816F4FF0D1704FDBB0D1
:104CE000714FE181724FE281734FD1BC744FA6D9ED
:104CF000754FE381764FA5D9774FE481784FE581F1
:104D0000794FE6817A4FE7817B4FACD97C4FAED9A2
:104D10007D4FE8817E4FABD97F4FB9CA804FE98183
:104D2000814FEA81824FEB81834FA9D9844FB6D658
:104D3000854FEC81864FED81874FEE81884FDEB342
:104D4000894FA8D98A4FEF818B4FFDC08C4FF081DE
:104D50008D4FCCCA8E4FF1818F4FAAD9904FF281DF
:104D6000914FA7D9924FF381934FF481944FB0D9CB
:104D7000954FF581964FF681974FB1B6984FF781D1
:104D8000994FF8819A4FF9819B4FA9B99C4FFA81AD
:104D90009D4FC0D29E4FFB819F4FFC81A04FC0CF43
:104DA000A14FFD81A24FFE81A34FC2C2A44F4082FA
:104DB000A54FC4BDA64FECD5A74FE0B2A84FC8C7BA
:104DC000A94FEBBFAA4FADD9AB4F4182AC4FAFD982
:104DD000AD4F4282AE4FEACEAF4FEEBAB04F4382F4
:104DE000B14F4482B24F4582B34F4682B44F47829F
:104DF000B54FD6C7B64F4882B74F4982B84F4A829F
:104E0000B94F4B82BA4F4C82BB4F4D82BC4F4E8242
:104E1000BD4F4F82BE4F5082BF4FE3B1C04F518252
:104E2000C14F5282C24F5382C34FD9B4C44FEDB663
:104E3000C54FB4D9C64F5482C74F5582C84F56820A
:104E4000C94F5782CA4FA1BFCB4F5882CC4F59820E
:104E5000CD4F5A82CE4FDED9CF4FCEC7D04FFEC0F6
:104E6000D14FB8D9D24F5B82D34F5C82D44F5D8291
:104E7000D54F5E82D64F5F82D74FD7CBD84FFDB785
:104E8000D94F6082DA4FB5D9DB4F6182DC4FB7D999
:104E9000DD4FA3B1DE4FE1D3DF4FB9D9E04F6282DE
:104EA000E14FC5D0E24F6382E34FB6D9E44F64824D
:104EB000E54F6582E64FB1D9E74F6682E84FB2D938
:104EC000E94FA9C1EA4FB3D9EB4F6782EC4F688233
:104ED000ED4FF3BCEE4FDED0EF4FA9B8F04F698233
:104EE000F14FE3BEF24F6A82F34FBDD9F44F6B82AC
:104EF000F54F6C82F64F6D82F74F6E82F84FBAD93C
:104F0000F94F6F82FA4FB3B0FB4F7082FC4F718242
:104F1000FD4F7282FE4FC2D9FF4F738200507482E0
:104F20000150758202507682035077820450788255
:104F30000550798206507A8207507B8208507C8225
:104F400009507D820A507E820B5080820C50C4D959
:104F50000D50B6B10E5081820F50BFD910508282D1
:104F6000115083821250B9B5135084821450F3BE8D
:104F70001550858216508682175087821850C8CCEB
:104F80001950F2BA1A50D0D21B5088821C50C3D983
:104F90001D5089821E508A821F50E8BD20508B828E
:104FA0002150ABB322508C8223508D8224508E82AC
:104FB0002550C5D92650EBBE27508F822850C6D920
:104FC0002950BBD92A50DFC42B5090822C50BED917
:104FD0002D50C1D92E50C0D92F509182305092827D
:104FE000315093823250948233509582345096825D
:104FF00035509782365098823750998238509A822D
:1050000039509B823A50AED53B509C823C50B5D62D
:105010003D509D823E50E3C73F509E8240509F824C
:105020004150A0824250A1824350C8D94450A2822C
:105030004550A3824650A4824750D9BC4850CAD993
:105040004950A5824A50A6824B50A7824C50BCD9E9
:105050004D50A8824E50CBD94F50ABC65050A9826C
:105060005150AA825250AB825350AC825450AD8200
:105070005550C9D95650AE825750AF825850B08261
:105080005950B1825A50F6D75B50B2825C50A3CDD2
:105090005D50B3825E50B4825F50B5826050B6827C
:1050A0006150B7826250B8826350B9826450BA824C
:1050B0006550A1BD6650BB826750BC826850BD82FE
:1050C0006950BE826A50BF826B50C0826C50CCD98E
:1050D0006D50C1826E50C2826F50C3827050C482C4
:1050E0007150C5827250C6827350C7827450C88294
:1050F0007550C9827650BCC57750B5CD7850CA82FC
:105100007950CB827A50CC827B50CDD97C50CD82E5
:105110007D50CE827E50C7D97F50A5B38050FEBF50
:105120008150CF828250D0828350D1828450D282EB
:105130008550B5B88650D3828750D4828850FCC041
:105140008950D5828A50D6828B50D7828C50D88293
:105150008D50F8B08E50D9828F50DA829050DB8219
:105160009150DC829250DD829350DE829450DF8237
:105170009550E0829650E1829750E2829850E38207
:105180009950E4829A50E5829B50E6829C50E782D7
:105190009D50E8829E50E9829F50EA82A050EB82A7
:1051A000A150EC82A250ED82A350F6B4A450EE823E
:1051B000A550CED9A650EF82A750CFD9A850A2B4FF
:1051C000A950D0D9AA50F082AB50F182AC50DFB4D4
:1051D000AD50F282AE50F382AF50F482B050F582FF
:1051E000B150F682B250C1B0B350F782B450F882D9
:1051F000B550F982B650FA82B750FB82B850FC82A3
:10520000B950FD82BA50D1D9BB50B5C9BC50FE824D
:10521000BD504083BE504183BF504283C050438342
:10522000C1504483C2504583C3504683C450478312
:10523000C5504883C6504983C7504A83C8504B83E2
:10524000C9504C83CA504D83CB504E83CC504F83B2
:10525000CD505083CE505183CF50F1CFD050528398
:10526000D1505383D2505483D3505583D450568356
:10527000D5505783D650D2D9D7505883D850598358
:10528000D9505A83DA50C5C1DB505B83DC505C8354
:10529000DD505D83DE505E83DF505F83E0506083CE
:1052A000E1506183E2506283E3506383E45064839E
:1052B000E5506583E650D6D9E750AEC9E85066831D
:1052C000E9506783EA506883EB506983EC50D5D985
:1052D000ED50D4D9EE50D7D9EF506A83F0506B839C
:1052E000F1506C83F2506D83F350DBCBF4506E833E
:1052F000F550A9BDF6506F83F7507083F850718355
:10530000F9507283FA507383FB50A7C6FC50748324
:10531000FD507583FE507683FF507783005178836C
:105320000151798302517A8303517B8304517C8339
:1053300005517D830651D3D90751D8D908517E83B1
:10534000095180830A5181830B51D9D90C51828331
:105350000D5183830E5184830F51858310518683B1
:10536000115187831251E5C81351888314518983E1
:1053700015518A8316518B8317518C8318518D8355
:1053800019518E831A518F831B5190831C51918325
:105390001D5192831E5193831F51948320519583F5
:1053A0002151DCC022519683235197832451988345
:1053B0002551998326519A8327519B8328519C8399
:1053C00029519D832A519E832B519F832C51A08369
:1053D0002D51A1832E51A2832F51A3833051A48339
:1053E0003151A5833251A6833351A7833451A88309
:1053F0003551A9833651AA833751AB833851AC83D9
:105400003951AD833A51AE833B51AF833C51B083A8
:105410003D51B1833E51B2833F51F9B64051A3D8BB
:105420004151CAD44251B3834351AAD44451D6D036
:105430004551E4B34651D7D54751B4834851C8CFFD
:105440004951E2B94A51B5834B51CBBF4C51B68358
:105450004D51E2C34E51B7834F51B8835051B98378
:105460005151D2B65251BA835351BB835451C3CD1B
:105470005551EED95651F0D95751BC835851BD837F
:105480005951BE835A51B3B55B51BF835C51B5B618
:105490005D51C0835E51C1835F51C2836051C3833C
:1054A0006151C4836251A4BE6351C5836451C683F4
:1054B0006551EBC86651C7836751C8836851ABC853
:1054C0006951C9836A51CA836B51CBB06C51ABB976
:1054D0006D51F9C16E51E2D96F51CB837051BCC08F
:1054E0007151B2B97251CC837351D8B97451CBD0C8
:1054F0007551F8B17651E4C67751DFBE7851E4B505
:105500007951C8D77A51CD837B51F8D17C51E6BC13
:105510007D51DECA7E51CE837F51CF838051BDBC89
:105520008151E6D98251E7D88351D0838451D18308
:105530008551DAC48651D2838751D3838851D4B838
:105540008951BDC88A51D4838B51D5838C51E1B226
:105550008D51D9D48E51D6838F51D7839051D88312
:105560009151D9839251B0C39351DA839451DB8323
:105570009551E1C39651A2DA9751DFC89851DC8367
:105580009951B4D09A51DD839B51FCBE9C51A9C561
:105590009D51DE839E51DF839F51E083A051DAB994
:1055A000A151E183A251A3DAA351E283A451A9D46A
:1055B000A551A4DAA651E383A751E483A851E5835A
:1055C000A951E683AA51E783AB51FBD9AC51ACB6E4
:1055D000AD51E883AE51E983AF51EBB7B051F9B1AA
:1055E000B151FCD9B251E5B3B351F6BEB451EA831F
:1055F000B551F6BFB651B1D2B751E4C0B851EB8343
:10560000B951EC83BA51ED83BB51B3B6BC51FED94D
:10561000BD51FDD9BE51EE83BF51EF83C051BBBE1A
:10562000C151F083C251F183C351F283C451E0C62A
:10563000C551F383C651BCD7C751A1DAC851F48311
:10564000C951B9C1CA51F583CB51F2B5CC51E8C1AA
:10565000CD51F683CE51F783CF51F5BCD051F883AD
:10566000D151D5B4D251F983D351FA83D451FB83AC
:10567000D551FC83D651FD83D751FE83D851408448
:10568000D9514184DA514284DB51DDC1DC5143847C
:10569000DD51FDC4DE514484DF514584E051B8BC86
:1056A000E151B2B7E2514684E3514784E451EFB788
:1056B000E5514884E6514984E7514A84E8514B84D6
:1056C000E9514C84EA514D84EB51ECD9EC514E84B4
:1056D000ED51BEC6EE514F84EF51ADBFF051CBBB83
:1056E000F1515084F2515184F351CAB5F4515284AE
:1056F000F551C9DBF651D7D0F7515384F851B9CDE4
:10570000F951BCB0FA51F6B3FB51F7BBFC51CADBFF
:10571000FD51AFBAFE515484FF51E4D40052B6B5E6
:105720000152F3B50252D6D80352D0C80452558460
:10573000055256840652D6B70752D0C70852D7D85A
:10574000095257840A52AFBF0B5258840C525984E5
:105750000D52BBDB0E52D8D80F525A8410525B84C4
:105760001152CCD01252AEBB13525C8414525D84E1
:1057700015525E841652BEEB1752D0C11852F5C1B5
:105780001952F2D41A52D5B81B52B4B41C525F84C9
:105790001D52F5B31E5260841F5261842052BEC94F
:1057A0002152628422526384235264842452D0C5DD
:1057B0002552658426526684275267842852D9C5AB
:1057C0002952FBC02A5268842B52F0B12C526984B2
:1057D0002D52D9D82E52CEB92F526A843052BDB52F
:1057E00031526B8432526C843352DAD834526D8425
:1057F00035526E843652C6D63752A2CB3852AFC815
:105800003952B2C93A52CCB43B52CCBF3C526F84ED
:105810003D52F4B93E5270843F52DBD84052DCD83E
:105820004152E7B64252C1BC4352EACC4452718461
:105830004552728446527384475274844852758428
:10584000495276844A52F7CF4B5277844C52DDD876
:105850004D52B0C74E5278844F5279845052D0B9CD
:105860005152A3BD52527A8453527B845452DECC9F
:1058700055527C845652CAC657527D8458527E84F3
:10588000595280845A5281845B5282845C52E0D89F
:105890005D5283845E52DED85F5284846052858478
:1058A0006152DFD86252868463528784645288844E
:1058B0006552FEB0665289846752E7BE68528A8498
:1058C0006952A3CA6A52F4BC6B528B846C528C84AA
:1058D0006D528D846E528E846F52B1B870528F8427
:1058E000715290847252EEB87352918474529284C1
:1058F0007552938476529484775295847852968424
:10590000795297847A5298847B5299847C529A84F3
:105910007D52E2D87E529B847F52CBBD80529C84C4
:105920008152E4D88252E3D883529D8484529E846B
:1059300085529F848652A0848752A1848852FCC5D8
:105940008952A2848A52A3848B52A4848C52A58447
:105950008D52A6848E52A7848F52A8849052E5D887
:105960009152A9849252AA849352E6D89452AB845D
:105970009552AC849652AD849752AE849852AF84BF
:105980009952B0849A52B1849B52A6C19C52B2845F
:105990009D52B0C89E52ECB09F52A6B9A052D3BC43
:1059A000A152F1CEA252BDDBA352D3C1A452B38403
:1059B000A552B484A652B584A752B684A852AFB6F5
:1059C000A952FAD6AA52ACC5AB52D9BDAC52BEDB75
:1059D000AD52BFDBAE52B784AF52B884B052B98477
:1059E000B152F8C0B252A2BEB352CDC0B452BA84C2
:1059F000B552BB84B652BC84B752BD84B852BE8483
:105A0000B952BF84BA52C084BB52C184BC52C28452
:105A1000BD52C384BE52C0DBBF52C6CAC052C4848A
:105A2000C152C584C252C684C352AAB2C452C784EA
:105A3000C552C884C652C984C752C2D3C852CA8488
:105A4000C952E3C3CA52CB84CB52ABD1CC52CC8423
:105A5000CD52CD84CE52CE84CF52CF84D052C2DB31
:105A6000D152D084D252D5C0D352D184D452D28410
:105A7000D552D384D652C3DBD752D484D852B1BFC7
:105A8000D952D584DA52D684DB52D784DC52D884FA
:105A9000DD52D984DE52DA84DF52BCC4E052DB84AA
:105AA000E152DC84E252DD84E352DE84E452DAC760
:105AB000E552DF84E652E084E752E184E852E28472
:105AC000E952E384EA52E484EB52E584EC52E68442
:105AD000ED52E784EE52E884EF52E984F052C4DBE1
