:020000040800F2
:10000000C038002099010008370200082F020008BC
:100010003302000829020008DD0200080000000089
:100020000000000000000000000000003B0200088B
:100030002D02000800000000390200083D020008FF
:10004000B3010008B3010008B3010008B3010008C0
:10005000B3010008B3010008B3010008B3010008B0
:10006000B3010008B3010008B3010008B3010008A0
:10007000B3010008B3010008B3010008B301000890
:10008000B3010008B3010008B3010008B301000880
:10009000B3010008B3010008B3010008B301000870
:1000A000B3010008B3010008B3010008B301000860
:1000B000B3010008B3010008B3010008B301000850
:1000C000B3010008B3010008B3010008B301000840
:1000D000B3010008B3010008B3010008B102000831
:1000E000B3010008B3010008B3010008B301000820
:1000F000B3010008B3010008B3010008B301000810
:10010000B3010008B3010008B3010008B3010008FF
:10011000B3010008B3010008B3010008B3010008EF
:10012000B3010008B3010008B3010008B3010008DF
:10013000B3010008B3010008B3010008B3010008CF
:1001400000000000000000000000000000000000AF
:10015000B3010008B3010008B3010008B3010008AF
:10016000B3010008B3010008B3010008B30100089F
:10017000B3010008B3010008B3010008B30100088F
:10018000B3010008DFF80CD000F03CF8004800474D
:10019000B90D0008C03800200648804706480047CF
:1001A000FEE7FEE7FEE7FEE7FEE7FEE7FEE7FEE727
:1001B000FEE7FEE7410200088501000830B504466D
:1001C0000020034600E05B1C934203D2E05CCD5C60
:1001D000401BF8D030BD30B50B4601460020202230
:1001E000012409E021FA02F59D4205D303FA02F544
:1001F000491B04FA02F52844151EA2F10102F1DCA4
:1002000030BD0000064C074D06E0E06840F00103F9
:1002100094E8070098471034AC42F6D3FFF7B6FFD6
:10022000E4190008041A000800BFFEE7704700BF89
:10023000FEE700BFFEE77047704770477047000059
:100240001848006840F470001649086016480068B5
:1002500020F00100401C1449086000BF12480068EB
:10026000C0F340000028F9D00F48406820F0030098
:100270000D49486000BF0C484068C0F38100002869
:10028000F9D1094800680949084007490860002079
:10029000486008634FF41F008860C8030149803933
:1002A0000860704788ED00E000100240FFFFF2FE9A
:1002B00010B52021084801F0A7F901280BD1202111
:1002C000054801F098F9044801F088F904462146F0
:1002D000014801F087F910BD0048004000BFFEE76B
:1002E0000FB4054B10B503A9044A029800F018F8A2
:1002F00010BC5DF814FB0000590C00085C000020E5
:1003000002E008C8121F08C1002AFAD170477047DE
:10031000002001E001C1121F002AFBD1704700003C
:100320002DE9FF4F89B09B460446002506E02528AD
:100330000BD05A460B999047641C6D1C20780028FE
:10034000F5D10DB02846BDE8F08F0027B846012250
:10035000474900E0074314F8013F203B02FA03F04D
:100360000842F7D120782E2819D114F8010F47F050
:1003700004072A280ED06FF02F022078A0F1300158
:1003800009290CD808EB880102EB410100EB0108B8
:10039000641CF2E70A98641C50F8048B0A902078D9
:1003A0000028CED0642808D0692806D075281ED031
:1003B0005A460B9990476D1C58E00A994FF00A096C
:1003C00001C90A91002802DA40422D2102E03905D4
:1003D00004D52B218DF82010012103E0F90704D06A
:1003E0002021F7E78A4608AE0DE00021FAE70A99D6
:1003F0004FF00A0901C90A91F7E74946FFF7EBFEFA
:10040000303106F8011D0028F7D1ADEB060000F1F0
:100410002009780701D44FF00108C84502DDA8EB98
:10042000090000E000208046002706E008A85A46A0
:10043000C05D0B9990476D1C7F1C5745F6DB04E0AF
:1004400030205A460B9990476D1CB8F10001A8F175
:100450000108F5DC05E016F8010B5A460B999047A8
:100460006D1CB9F10001A9F10109F4DC641C65E718
:10047000092801001CB500200090019001211B48B3
:1004800000F080FA10208DF8060000208DF804009E
:1004900018208DF8050001208DF80700000300905A
:1004A0006946134800F021FC08208DF80600800200
:1004B000009069460E4800F018FC08208DF80600F0
:1004C000C002009069460A4800F00FFC08208DF831
:1004D0000600000300906946054800F006FC4FF452
:1004E0008051034800F0FFFB1CBD00000300180012
:1004F000000C01401CB5FFF7BDFF0121114800F0C1
:1005000041FA684600F0E0FE01208DF807008DF802
:10051000010000208DF8000001208DF806008DF804
:10052000050000208DF803008DF8040002208DF8EE
:1005300002006946044800F0E5FE0121024800F08F
:10054000CEFE1CBD0E001C000038004010B5FF2080
:1005500000F002F810BD000070B5044621460B48BB
:1005600000F0C6FE00BF0121084800F0C3FE0028CD
:10057000F9D0064800F0B8FEC5B200BF802103489C
:1005800000F0B8FE0028F9D1284670BD00380040C0
:100590001CB500200090019001210E4800F0F2F9F6
:1005A00008208DF8060000208DF8040004208DF846
:1005B000050001208DF80700C0020090694606483A
:1005C00000F093FB4FF4806000906946024800F011
:1005D0008CFB1CBD03001800000C014010B5FFF798
:1005E000D7FF00F023F801210D4800F0CBF90023DC
:1005F0001A464FF4E1310B4801F00EF80121094889
:1006000001F06EF80121074801F065F80121054865
:1006100000F0ECFF01220449024801F041F810BD4E
:1006200012001C000048004005000C0010B504201A
:1006300000F036FE00221146272000F0CDFD10BD4F
:100640002DE9F041044688460020E070401E6063BA
:100650004146204600F0A6FD10B10420BDE8F0811F
:1006600004F2362000F0A1FB074694F83850EB2D39
:1006700003D0E92D01D0E82D43D14AF65520874219
:1006800008D1082223A104F18A00FFF797FD08B9D9
:100690000020E3E704F1430000F087FB0646452015
:1006A000055D701E304060BBB6F5007F29DBB6F5F6
:1006B000805F26DC2DB3681E284010BB04F1460085
:1006C00000F073FBE8B14820005D401E012818D8F7
:1006D00004F1490000F069FB98B104F14B0000F00F
:1006E00064FB802806DA04F1580000F052FBB0F5F4
:1006F000803F06D304F14E0000F057FB08B1002004
:10070000ACE74AF65520874201D10220A6E7032034
:10071000A4E70000464154333220202000000000AE
:100720000349496860F30711014A516070470000AE
:10073000001002400349496860F30A21014A5160F0
:1007400070470000001002400349496860F3CD2162
:10075000014A51607047000000100240012807D193
:100760000749496D21F030013031054A516505E0F6
:100770000349496D21F03001014A5165704700007D
:1007800000100240052827D2DFE800F0030A111804
:100790001F00134A126861F30002114B1A601CE03B
:1007A0000F4A126861F310420D4B1A6015E00C4AB3
:1007B000126861F318620A4B1A600EE0084A126A66
:1007C00061F30002064B1A6207E0054A526A61F3C0
:1007D0000002034B5A6200E000BF00BF70470000F8
:1007E000001002402DE9F0410146002700220025BB
:1007F00090460023002400F053F9064626B1012E4E
:1008000012D0022E43D112E03948406DC0F340208F
:1008100038B13748006BC0F3406010B1354808600C
:1008200001E03548086035E03348086032E0304880
:100830004068C0F300482E484068C0F383422C480B
:100840004068C0F341750DB90F2A03D12801401C3F
:10085000024400E0921CB8F1000F03D12748504336
:10086000086013E022484068C0F3404058B1204877
:10087000406DC0F30137B81CDFF87CC0BCFBF0F062
:100880005043086002E01C485043086002E01A48E8
:10089000086000BF00BF16484068C0F30313184843
:1008A000C45C0868E040486011484068C0F3022317
:1008B0001448C45C4868E040C8600D484068C0F314
:1008C000C2231148C45C4868E0408860084840681A
:1008D000C0F3007306484068C0F3813040EA8303E8
:1008E0000A48C45C8868B0FBF4F00861BDE8F08198
:1008F00000100240006CDC0200127A0000093D008A
:10090000BC190008CC190008D4190008DC1900082B
:1009100010B501460020094B03EB1142126801F0AB
:100920001F040123A3401A4001F01F040123A34028
:100930009A4200D000E0012010BD000000100240EB
:100940000349496D60F30D31014A5165704700005C
:100950000010024030B50024002500E0641C112086
:10096000FFF7D6FF012802D0B4F5405FF6D311207F
:10097000FFF7CEFF012801D0002500E00125284621
:1009800030BD000010B501290DD10E4B03EB104214
:10099000126800F01F040123A3401A43094C04EB22
:1009A00010431A600CE0074B03EB1042126800F092
:1009B0001F040123A3409A43024C04EB10431A6026
:1009C00010BD00000010024010B530B9184B5B6834
:1009D00023F48033164C636017E0154B5B6823F4F7
:1009E000803303F58033124C6360012805D1234620
:1009F0005B6823F40033636007E00D4B5B6823F40E
:100A0000003303F500330A4C6360094B5B6861F304
:100A10009543074C63600C09054B5B6864F35E7398
:100A2000034C636023465B6862F3DF73636010BD51
:100A3000001002401348006820F00100401C1149DA
:100A4000086000BF0F480068C0F340000028F9D0DC
:100A50000C48406820F003000A49486000BF09487C
:100A60004068C0F381000028F9D1064800680649B3
:100A70000840044908600020486008634FF41F00E4
:100A80008860704700100240FFFFF2FE034949688A
:100A900060F30101014A51607047000000100240FC
:100AA00002484068C0F38100704700000010024017
:100AB00070B5044674B94FF4FA76FFF71BFD00BF1A
:100AC000301EA6F101018EB2FAD100F04BFF0025D5
:100AD000284670BD0120FCE710B503460C46E3B97B
:100AE00034B1012C06D0022C09D0032C10D10BE01C
:100AF00000210FE040F60800106000210AE04FF4EA
:100B000080501080002105E001201060002101E0EC
:100B1000042100BF00BF084610BD0420FCE72DE9FA
:100B2000F04180460C4615461E46B8F1000F08D12C
:100B300032462946204600F0D5FE00273846BDE85B
:100B4000F0810420FBE770B505464DB900F0A0FE2A
:100B5000044645F61660844200D10026304670BD3A
:100B60000120FCE72DE9F04104460D4616461F46DC
:100B70004CB9BAB23146284600F0B7FD4FF0000834
:100B80004046BDE8F0810420FBE70000F7B582B0E5
:100B900016460398019001A800F07CF80546002D48
:100BA00002DA0B2005B0F0BD0C4850F825400CB11E
:100BB00000202070029810B10020029908700749A7
:100BC000029841F825000EB90020EBE7002202A9A7
:100BD00003A800F06DF907463846E3E7500000200F
:100BE0002DE9FF4107460D4600213846FFF728FD55
:100BF0000646022E06D0032E00D21DB9304604B0A0
:100C0000BDE8F08100BF00240AE007F5FB7101EBAD
:100C1000041101F1080000F0BCF84DF82400641C38
:100C2000042CF2D30DB1681E00E00020044600BF82
:100C30005DF8240028B15DF824103846FFF700FD68
:100C400000E0032006462DB9022E03D3601C0446A3
:100C50000428EDD33046D2E738B504460D464FF4AC
:100C600080500090A1B20A4800F0BCFC04E0BDF83E
:100C70000000401E80B200904021054800F0C4FCF6
:100C800018B9BDF800000028F1D1204638BD000099
:100C90000048004070B504464FF0FF3026683146EA
:100CA000324601B970BD00BF12F8013B202B01D3C1
:100CB0003A2BF9D13A2B11D102250E78302E08DBD0
:100CC0000E78392E05DC8E1C964202D10E78A6F1E4
:100CD0003005022D01DA28462260E3E7002000BF3C
:100CE000E0E74161704701617047F0B50A46158839
:100CF000ABB29579032D01D100241AE0957965B93D
:100D0000557905F00F045579182D01D1036110E0D4
:100D10005579282D0DD143610BE0957905F0080533
:100D2000167906F004063543D67906F0030645EA3F
:100D30000604DDB2A5B1002110E001258D401D4063
:100D40005DB105688F000F26BE40B543056005689C
:100D50008E0004FA06F635430560491C0829ECD3D9
:100D6000FF2B15DD1B12002110E001258D401D40D9
:100D70005DB145688F000F26BE40B54345604568AC
:100D80008E0004FA06F635434560491C0829ECD369
:100D9000F0BD0146C8788A7842EA00204A7842EAE3
:100DA00000200A7842EA00207047014648780A7815
:100DB00042EA00207047000000F05BFBFFF70EFCEA
:100DC0001AA0FFF78DFA01221EA11F48FFF7DEFED1
:100DD0001E490870084600780D281AD100200870B6
:100DE0000846007888B9012216A10020FFF7CEFE40
:100DF000012214A11448FFF7C9FE144908700846DF
:100E0000017813A0FFF76CFA0DE015A0FFF768FA60
:100E100009E00E48007818B115A0FFF761FA02E06A
:100E20001AA0FFF75DFA00BFFEE700006861726478
:100E30007761726520696E697420636F6D706C658F
:100E400074650A00303A00006000002004000020B1
:100E50007265735F666C617368203D2025640A00CB
:100E6000466F726D6174206661696C65640A00008A
:100E700066696C6573797374656D206D6F756E74DA
:100E8000206661696C65640A0000000066696C6533
:100E90002073797374656D206D6F756E7465642051
:100EA0007375636365737366756C6C790A00000013
:100EB0002DE9F74F84B00021059801600498FFF7F1
:100EC000E9FE03900398002803DA0B2007B0BDE881
:100ED000F08FAF49039851F820400CB90C20F5E78A
:100EE00005980460069800F0FE000690207878B11E
:100EF0006078FFF728FE074607F0010040B9069822
:100F000020B107F0040008B10A20DFE70020DDE788
:100F100000202070039860706078FFF7C9FD0746D5
:100F200007F0010008B10320D0E7069820B107F0D0
:100F3000040008B10A20C9E7607804F10C0202211C
:100F4000FFF7CAFD08B10120C0E7A089B0F5805FB6
:100F500007DCA089B0F5007F03DBA089411E0840B3
:100F600008B10120B2E700212046FFF739FE05460F
:100F7000042D01D10120A9E7022D01D30D20A5E701
:100F8000D4F8349004F14300FFF70FFFA1898842A1
:100F900001D00D209AE704F14E00FFF706FF064648
:100FA00026B904F15C00FFF7F4FE064626624820ED
:100FB000005DA070A078012804D0A078022801D09C
:100FC0000D2083E7A07846434520005D608160895D
:100FD00018B16089411E084008B10D2076E704F180
:100FE0004900FFF7E2FE2081A089C11700EBD16123
:100FF0004911228992FBF1F301FB132109B10D2064
:1010000064E704F14B00FFF7D0FE8246BAF1000F0F
:1010100004D104F15800FFF7BCFE824604F14600FB
:10102000FFF7C3FE8346BBF1000F01D10D204DE752
:10103000A089C11700EBD1614911228992FBF1F11E
:101040000BEB06021144029102998A4501D20D2050
:101050003CE70298AAEB00006189B0FBF1F8B8F117
:10106000000F01D10D2031E700254A48804500D806
:1010700003254FF6F570804500D8022540F6F5703F
:10108000804500D801250DB90D201FE708F10200A9
:10109000E061C4F8249009EB0B00A0620298484478
:1010A0002063032D13D104F16200FFF77EFE08B127
:1010B0000D200BE7208908B10D2007E704F164003B
:1010C000FFF767FEE062E0698000019014E020898C
:1010D00008B90D20FAE6A06A3044E062022D02D180
:1010E000E069400007E0207F00F00100E16901EBCA
:1010F000410100EB51000190A089401E0199084474
:10110000A189B0FBF1F0216A884201D90D20DDE60A
:101110004FF0FF30A061606180202071032D2DD140
:1011200004F16800FFF741FE012827D109F1010110
:10113000204600F037F808BB0020207104F236206A
:10114000FFF733FE4AF65521884217D104F13800E3
:10115000FFF71FFE1049884210D104F50770FFF712
:1011600018FE0E49884209D104F50870FFF711FEF8
:10117000A06104F50970FFF70CFE60612570084856
:101180000088401C80B206490880E08000209DE66F
:1011900050000020F5FFFF0F525261417272416111
:1011A0005800002070B504460D460026606BA8422A
:1011B00010D0204600F038F906465EB96078012369
:1011C0002A4604F13801FFF7AAFC10B14FF0FF35B1
:1011D00001266563304670BD2DE9F0470B46144685
:1011E0004FF0000C00BF2C4A1268C2F302211D46CA
:1011F00026460A46C2F10709B9F1040F02D94FF099
:10120000040901E0C2F10709C84602F10409B9F175
:10121000070F02D24FF0000901E0A2F103094F4687
:101220004FF0010909FA08F9A9F1010909EA0509CC
:1012300009FA07F94FF0010A0AFA07FAAAF1010AB6
:101240000AEA060A49EA0A09CC460146624600292A
:1012500004DB15072E0E114D6E5407E015072F0EF7
:101260000D4D0C3501F00F06361FAF5500BF01467E
:1012700000290DDB00BF00BF01F01F050122AA40BD
:101280004D09AD0005F1E025C5F8002100BF00BF04
:1012900000BFBDE8F08700000CED00E000E400E0D6
:1012A00000BF00F00702064B19684FF6FF03194014
:1012B000044B0B4343EA0221014B196000BF704706
:1012C0000CED00E00000FA05002101704170817012
:1012D000C1700171417181710121C1717047026852
:1012E00061F38612026070470146C86880B2704799
:1012F000C16070470246002093680B4003B900E0CC
:1013000001207047C26922F40062C2610A7862B9A2
:10131000026822F400420260026822F48042026005
:10132000026822F48062026036E00A78012A0ED157
:10133000026822F400420260026822F480420260E5
:10134000026822F4806202F58062026024E00A787A
:10135000022A0ED1026822F4004202F50042026025
:10136000026822F480420260026822F48062026015
:1013700012E00A78032A0FD1026822F4004202F533
:1013800000420260026822F4804202F5804202605C
:10139000026822F480620260CB79026863F349221A
:1013A00002604A78012A09D1CA79012A06D1026865
:1013B00022F4807202F58072026003E0026822F477
:1013C000807202604B78026863F3820202608A785E
:1013D000072A0BDD426822F4807202F580724260B7
:1013E0008A78036862F3C503036008E0426822F468
:1013F000807242608B78026863F3C5020260CB782A
:10140000026863F3C71202600B79026863F3CB22B0
:1014100002604B79026863F3410202608B790268D3
:1014200063F300020260704770B504460025E0785F
:10143000E8B16078012304F13801626BFFF792FB99
:10144000A0B90020E070A16A606B401A216A88424E
:101450000DD2A07802280AD1236A616BCA1860787D
:10146000012304F13801FFF77DFB00E00125284648
:1014700070BD10B5FFF7DEFA01210846FFF782F9CB
:1014800000BFFFF767FA0028FBD001223B210220B2
:10149000FFF79AFA0020FFF753FA01210220FFF725
:1014A00071F900BF1920FFF733FA0128FAD10020A3
:1014B000FFF736F90420FFF747F90420FFF73AF960
:1014C0000120FFF74BF90220FFF7E0FA00BFFFF71A
:1014D000E7FA0228FBD10020FFF740F900F002F8FC
:1014E00010BD00002DE9F04700260024002500274C
:1014F000A046A146FFF7D4FA8246BAF1000F06D003
:10150000BAF1010F15D0BAF1020F46D115E02D48FE
:10151000406DC0F3402040B12A48006BC0F34060EA
:1015200018B129482949086002E02948274908607C
:1015300037E027482549086033E022484068C0F377
:10154000004720484068C0F383441E484068C0F309
:1015500041750DB90F2C03D12801401C044400E053
:10156000A41C27B91B4860431849086014E01548BB
:101570004068C0F3404058B11248406DC0F3013696
:10158000B01C1349B1FBF0F060431049086003E060
:101590000F4860430D49086003E00D480B4908609F
:1015A00000BF00BF07484068C0F303180A4810F89E
:1015B00008900648006820FA09F004490860BDE870
:1015C000F087000000100240006CDC0200000020E8
:1015D00000127A0000093D00AC1900080146486875
:1015E00080B27047C1F3080242607047C26861F37D
:1015F0004D32C260704701F01F0212B102684268AA
:1016000001E0CA430260704702461068084008B112
:10161000012070470020FCE72DE9F04385B0044627
:101620000F46904699466846FFF7DCF81848844212
:1016300008D01848844205D01748844202D0174881
:10164000844201D1029E00E0039E06EB860040002A
:10165000B0FBF7F50A20B5FBF0F100FB11500528AF
:1016600003D20A20B5FBF0F503E00A20B5FBF0F049
:10167000451CA06865F30F00A060E06868F30C30BB
:10168000E060206969F30D30206105B0BDE8F083AA
:1016900000380140006001400064014000680140E2
:1016A00030B5012A0BD100EB11431B6801F01F0577
:1016B0000124AC40234300EB114423600AE000EB1B
:1016C00011431B6801F01F050124AC40A34300EB4C
:1016D0001144236030BDC26861F38202C26070476A
:1016E000C26861F3C302C26070472DE9F05F07462C
:1016F0000E4614464FF0000B00F046F906F0FF09C5
:10170000C9F10000C5B22046E11704EB1161C1F335
:101710000728E11704EB11610912A4EB012101F084
:10172000FF0AB9F1000F20D1B8F1000F05D1224610
:101730003146384600F068F863E009E04FF4807203
:101740003146384600F060F807F5807706F5807678
:10175000B8F10000A8F1010101F0FF08EED15246F6
:101760003146384600F050F84BE0B8F1000F17D181
:10177000A54205DD22463146384600F045F840E0F6
:101780002A463146384600F03FF8601B00F0FF0B58
:101790002F442E445A463146384600F035F830E0A2
:1017A000601B84B22046E11704EB1161C1F30728E6
:1017B000E11704EB11610912A4EB012101F0FF0A0A
:1017C0002A463146384600F01FF82E442F4409E0DF
:1017D0004FF480723146384600F016F807F58077EE
:1017E00006F58076B8F10000A8F1010101F0FF08CC
:1017F000EED1BAF1000F04D052463146384600F01F
:1018000003F8BDE8F09F000070B505460C4616468B
:1018100000F0BAF84FF480511448FFF762FA022042
:10182000FEF79AFEC4F30740FEF796FEC4F30720C6
:10183000FEF792FEE0B2FEF78FFEB6F5807F02DD86
:101840000BA0FEF74DFD03E02878FEF785FE6D1C2A
:10185000301EA6F101018EB2F6D14FF4805103483B
:10186000FFF741FA00F066F870BD0000000C01407F
:101870005732355158585F506167655772697465C2
:1018800020697320746F6F206C617267650A0000B5
:101890002DE9F04100240025002700264FF4805157
:1018A0000F48FFF71EFA9020FEF756FEFF20FEF7C6
:1018B00053FEFF20FEF750FE0020FEF74DFEFEF720
:1018C00045FEC4B2FEF742FEC5B24FF48051044853
:1018D000FFF709FA45EA04263046BDE8F08100002A
:1018E000000C014070B505460C4616464FF4805179
:1018F0000F48FFF7F6F90320FEF72EFEC4F307406A
:10190000FEF72AFEC4F30720FEF726FEE0B2FEF73C
:1019100023FE03E0FEF71AFE28706D1C301EA6F1B0
:101920000106F7D14FF480510148FFF7DCF970BD93
:10193000000C014010B54FF480510948FFF7D1F970
:101940000520FEF709FE00BFFEF700FE00F00100D3
:101950000028F9D14FF480510148FFF7C4F910BDB8
:10196000000C014010B54FF480510648FFF7B9F95B
:10197000AB20FEF7F1FD4FF480510248FFF7B3F9B9
:1019800010BD0000000C014010B54FF48051064816
:10199000FFF7A7F90620FEF7DFFD4FF4805102485C
:1019A000FFF7A1F910BD0000000C0140000000008D
:1019B00000000000010203040607080900000000FF
:1019C00000000000010203040607080900000000EF
:1019D00001020304000000000102030402040608DF
:1019E000020C0810041A000800000020600000002B
:1019F00000030008641A000860000020603800003E
:101A00001003000800127A0000000000000000002F
:101A100057656C636F6D65206865726520616E64E3
:101A2000207769736820796F75206C75636B206609
:101A30006F7265766572212054686973206973201E
:101A400074686520746573742070726F6772616D5D
:101A50000D0A00000000000000000000000000006F
:041A60000000000082
:040000050800018569
:00000001FF
